:020000040800F2
:1000000000060020ED000008F5000008F7000008D9
:10001000F9000008FB000008FD00000800000000D7
:10002000000000000000000000000000FF000008C9
:10003000010100080000000003010008050100089C
:100040000701000807010008070100080701000870
:100050000701000807010008070100080701000860
:100060000701000807010008070100080701000850
:100070000701000807010008070100080701000840
:100080000701000807010008070100080701000830
:100090000701000807010008070100080701000820
:1000A0000701000807010008070100080701000810
:1000B0000701000807010008070100080701000800
:1000C00007010008070100080701000807010008F0
:1000D00007010008070100080701000807010008E0
:1000E00007010008070100080701000809488047C8
:1000F00009480047FEE7FEE7FEE7FEE7FEE7FEE70A
:10010000FEE7FEE7FEE7FEE704480549054A064B21
:10011000704700006102000881070008000000200D
:1001200000060020000200200002002070477047F7
:100130007047000080B500F001F880BD84B0002059
:100140000390029041F20001C4F20201086840F4F9
:1001500080300860FFE741F20000C4F2020000684E
:1001600000F400300290039801300390FFE70299F9
:100170000020019039B9FFE70398B0F5A06018BFDF
:1001800001200190FFE70198C0070028E3D1FFE7B5
:1001900041F20000C4F2020000688003002803D589
:1001A000FFE70120029002E000200290FFE70298A2
:1001B000012851D1FFE742F20001C4F202010868B0
:1001C00040F010000860086820F007000860086828
:1001D00040F00200086041F20401C4F20201009103
:1001E0000868086008680860086840F48060086073
:1001F000086820F47C100860086840F4E810086083
:1002000041F20001C4F20201086840F08070086009
:10021000FFE741F20000C4F20200006880010028FC
:1002200001D4FFE7F5E741F20401C4F202010868D6
:1002300020F003000860086840F002000860FFE753
:1002400041F20400C4F20200006800F00C0008282B
:1002500001D0FFE7F4E700E0FFE704B070470000DB
:1002600080B541F20002C4F20202106840F00100C1
:10027000106041F20401C4F2020108680023CFF6C5
:10028000FF031840086010684FF6FF73CFF6F6635F
:1002900018401060106820F480201060086820F476
:1002A000FE00086041F20801C4F202014FF41F0091
:1002B0000860FFF73FFF4EF60851CEF200014FF005
:1002C0000060086080BD000007B51B48016821F090
:1002D0000F0141F0020121F4702141F480210160FD
:1002E00007BD07B51548016811F0100F11D114486A
:1002F000016821F0010101604FF4D7704FF4E673FB
:100300004FF014014FF032044FF6FF7A00F043FD36
:1003100011E00B48016841F0010101604FF4D77012
:100320004FF4E6734FF014014FF032044FF4784A63
:1003300000F031FDFFE707BD000C0140080C014053
:100340000C0C01402DE9FF5F1248016841F00801E3
:1003500001601148416821F0706141F080614160A5
:10036000416821F00F0141F002014160BDE8FF9FAB
:100370002DE9FF5F0848816811F0800104D1C2684F
:1003800022F48072C26003E0C26842F48072C260EC
:10039000BDE8FF9F18100240000C014007B51B4844
:1003A000016821F00F0141F0020121F4700141F4D4
:1003B0008001016007BD07B51548016811F0200FE5
:1003C00011D11448016841F0010101604FF4D77068
:1003D0004FF4E6734FF050014FF06E044FF01F0AD8
:1003E00000F0A9FB11E00B48016821F00101016058
:1003F0004FF4D7704FF4E6734FF050014FF06E0496
:100400004FF6FF7A00F097FBFFE707BD000C0140B5
:10041000080C01400C0C014007B59249086820F413
:1004200080700860086820F0FF0002F0FF0240EAD8
:10043000020008608B49086840F48070086007BDBE
:1004400003B58849086820F400700860FFF7E4FFEE
:1004500003BD03B58349086840F400700860FFF7E6
:10046000DBFF03BD07B57F49086840F40060086002
:1004700000F0CCF87B49086820F40060086000F0C8
:10048000C5F87849086840F40060086000F0BEF8DC
:100490007449086840F4806008607249086840F454
:1004A000807008606F49086820F4806008604FF031
:1004B000C502FFF7C5FF4FF07F02FFF7CAFF4FF0FD
:1004C0000002FFF7C6FF4FF03602FFF7B9FF4FF00B
:1004D0002802FFF7BEFF4FF03A02FFF7B1FF4FF0DF
:1004E0005502FFF7B6FF4FF01102FFF7A9FF00F02A
:1004F0008DF84FF02902FFF7A3FF00F087F84FF0C7
:100500002002FFF79DFF4FF02C02FFF799FF07BD78
:100510002DE9FF5FA1F10101A4F101044FF02A02CE
:10052000FFF78EFF4FEA1022FFF793FF0246FFF717
:1005300090FF4FEA1122FFF78CFF0A46FFF789FF71
:100540004FF02B02FFF77CFF4FEA1322FFF781FFEA
:100550001A46FFF77EFF4FEA1422FFF77AFF224682
:10056000FFF777FF4FF02C02FFF76AFFBDE8FF9F10
:100570002DE91F443B4B1C6824F400441C600B46CF
:1005800000F1010103F10104FFF7C2FF4FF02C025B
:10059000FFF756FF4FEA1A22FFF75BFF5246FFF7BD
:1005A00058FFBDE81F842DE9FF5F0E46194633460C
:1005B000FFF7AEFF091AE41A04FB01F54FEA1A220D
:1005C000FFF747FF5246FFF744FF6D1E002DF5DA97
:1005D000BDE8FF9F2DE9FF5F2349086840F0040054
:1005E0000860224801684FF011310160204801681D
:1005F0004FF0113101601B4908684FF0000040F4D2
:10060000FE400860FFF72EFFBDE8FF9F2DE9004187
:10061000DFF86080B8F10108B8F1000FFADABDE840
:1006200000812DE90041DFF84C80B8F10208B8F1F3
:10063000000FFADABDE800812DE90041DFF83480CF
:10064000B8F57A78B8F1000FFADABDE800812DE943
:100650000041DFF82080B8F16408B8F1000FFADA41
:10066000BDE800810C08014018100240000801405C
:1006700004080140046018002DE9FF5F1F6804466C
:100680000D464FF0200802FB06F981444C4506D385
:100690000446154402FB0BF989444D451ED24FEA2E
:1006A000D779B9F1010F2DE9FF0720462946034606
:1006B00013440C4614440CBF4FF0000A4FF6FF7A67
:1006C000FFF771FFBDE8FF0714444FEA4707B8F191
:1006D0000108D8D103F104031F68D2E7BDE8FF9FEA
:1006E0002DE9FF5F4FF004054FF009064FF00C0BAA
:1006F000194B002C08BFFFF7BFFF184B012C08BF98
:10070000FFF7BAFF164B022C08BFFFF7B5FF154BDA
:10071000032C08BFFFF7B0FF134B042C08BFFFF7F3
:10072000ABFF124B052C08BFFFF7A6FF104B062CA2
:1007300008BFFFF7A1FF0F4B072C08BFFFF79CFF77
:100740000D4B082C08BFFFF797FF0C4B092C08BF77
:10075000FFF792FFBDE8FF9F9810000848100008BF
:1007600088100008781000082810000818100008E9
:100770006810000858100008081000083810000819
:10078000FFF728FF4FF000004FF4F0734FF0000127
:100790004FF4A0744FF6FF7AFFF705FF4FF48C700B
:1007A0004FF0C8014FF004024FF019064FF0190B3B
:1007B0002D4BFFF761FF4FF48C704FF032014FF07B
:1007C00004024FF01A064FF0140B284BFFF754FFAA
:1007D00000F04EF8FFF7E2FDFFF776FD00F070F84D
:1007E000414601F0FF014FF00A05B1FBF5F44FF06F
:1007F00006024FF073004FF03201FFF771FF4146E0
:1008000001F0FF0104FB05F6A1EB06044FF0060220
:100810004FF0B4004FF03201FFF762FF4FEA18418A
:1008200001F0FF014FF00A05B1FBF5F44FF00602AD
:100830004FF073004FF0DC01FFF752FF4FEA184111
:1008400001F0FF0104FB05F6A1EB06044FF00602E0
:100850004FF0B4004FF0DC01FFF742FFFFF7ABFDB4
:10086000FFF73FFDBAE70000EC100008A8100008F1
:100870000FB51048016841F0080101600E48016899
:1008800021F00F0141F0010101600C48016841F0C5
:10089000010101604FF080404FF0480181624FF646
:1008A000FF71C1624FF08040016841F001010160B9
:1008B0000FBD000018100240000C01401C10024047
:1008C000FFB53648016821F0F00141F030010160C8
:1008D0003348016821F40071016044F2506200F075
:1008E00050F82F48016841F4007101604FF01E027A
:1008F00000F047F82948016821F0F00141F080013B
:1009000001604FF0280200F03CF82648016811F41D
:10091000007FFAD14FF0500200F033F8214801680F
:1009200011F4007FFAD04FF005064FF000074FF0AA
:1009300000084FF000044FF008051A48016811F450
:10094000007FFAD11748016811F4007FFAD04FF008
:1009500000021448016802F1010211F4007FF8D18D
:100960004FEA44046E2A01D944F001046D1EE4D11B
:1009700004FA07F448EA040807F10807761ED8D1FC
:10098000FFBD3FB54FF08040436A456AAB42FCD0A3
:10099000521E002A00D0F8E73FBD0000040C0140C1
:1009A0000C0C0140080C014007B59249086820F47E
:1009B00080700860086820F0FF0002F0FF0240EA43
:1009C000020008608B49086840F48070086007BD29
:1009D00003B58849086820F400700860FFF7E4FF59
:1009E00003BD03B58349086840F400700860FFF751
:1009F000DBFF03BD07B57F49086840F4006008606D
:100A000000F0CCF87B49086820F40060086000F032
:100A1000C5F87849086840F40060086000F0BEF846
:100A20007449086840F4806008607249086840F4BE
:100A3000807008606F49086820F4806008604FF09B
:100A4000C502FFF7C5FF4FF07F02FFF7CAFF4FF067
:100A50000002FFF7C6FF4FF03602FFF7B9FF4FF075
:100A60002802FFF7BEFF4FF03A02FFF7B1FF4FF049
:100A70005502FFF7B6FF4FF01102FFF7A9FF00F094
:100A80008DF84FF02902FFF7A3FF00F087F84FF031
:100A90002002FFF79DFF4FF02C02FFF799FF07BDE3
:100AA0002DE9FF5FA1F10101A4F101044FF02A0239
:100AB000FFF78EFF4FEA1022FFF793FF0246FFF782
:100AC00090FF4FEA1122FFF78CFF0A46FFF789FFDC
:100AD0004FF02B02FFF77CFF4FEA1322FFF781FF55
:100AE0001A46FFF77EFF4FEA1422FFF77AFF2246ED
:100AF000FFF777FF4FF02C02FFF76AFFBDE8FF9F7B
:100B00002DE91F443B4B1C6824F400441C600B4639
:100B100000F1010103F10104FFF7C2FF4FF02C02C5
:100B2000FFF756FF4FEA1A22FFF75BFF5246FFF727
:100B300058FFBDE81F842DE9FF5F0E461946334676
:100B4000FFF7AEFF091AE41A04FB01F54FEA1A2277
:100B5000FFF747FF5246FFF744FF6D1E002DF5DA01
:100B6000BDE8FF9F2DE9FF5F2349086840F00400BE
:100B70000860224801684FF0113101602048016887
:100B80004FF0113101601B4908684FF0000040F43C
:100B9000FE400860FFF72EFFBDE8FF9F2DE90041F2
:100BA000DFF86080B8F10108B8F1000FFADABDE8AB
:100BB00000812DE90041DFF84C80B8F10208B8F15E
:100BC000000FFADABDE800812DE90041DFF834803A
:100BD000B8F57A78B8F1000FFADABDE800812DE9AE
:100BE0000041DFF82080B8F16408B8F1000FFADAAC
:100BF000BDE800810C0801401810024000080140C7
:100C0000040801400460180007B59249086820F400
:100C100080700860086820F0FF0002F0FF0240EAE0
:100C2000020008608B49086840F48070086007BDC6
:100C300003B58849086820F400700860FFF7E4FFF6
:100C400003BD03B58349086840F400700860FFF7EE
:100C5000DBFF03BD07B57F49086840F4006008600A
:100C600000F0CCF87B49086820F40060086000F0D0
:100C7000C5F87849086840F40060086000F0BEF8E4
:100C80007449086840F4806008607249086840F45C
:100C9000807008606F49086820F4806008604FF039
:100CA000C502FFF7C5FF4FF07F02FFF7CAFF4FF005
:100CB0000002FFF7C6FF4FF03602FFF7B9FF4FF013
:100CC0002802FFF7BEFF4FF03A02FFF7B1FF4FF0E7
:100CD0005502FFF7B6FF4FF01102FFF7A9FF00F032
:100CE0008DF84FF02902FFF7A3FF00F087F84FF0CF
:100CF0002002FFF79DFF4FF02C02FFF799FF07BD81
:100D00002DE9FF5FA1F10101A4F101044FF02A02D6
:100D1000FFF78EFF4FEA1022FFF793FF0246FFF71F
:100D200090FF4FEA1122FFF78CFF0A46FFF789FF79
:100D30004FF02B02FFF77CFF4FEA1322FFF781FFF2
:100D40001A46FFF77EFF4FEA1422FFF77AFF22468A
:100D5000FFF777FF4FF02C02FFF76AFFBDE8FF9F18
:100D60002DE91F443B4B1C6824F400441C600B46D7
:100D700000F1010103F10104FFF7C2FF4FF02C0263
:100D8000FFF756FF4FEA1A22FFF75BFF5246FFF7C5
:100D900058FFBDE81F842DE9FF5F0E461946334614
:100DA000FFF7AEFF091AE41A04FB01F54FEA1A2215
:100DB000FFF747FF5246FFF744FF6D1E002DF5DA9F
:100DC000BDE8FF9F2DE9FF5F2349086840F004005C
:100DD0000860224801684FF0113101602048016825
:100DE0004FF0113101601B4908684FF0000040F4DA
:100DF000FE400860FFF72EFFBDE8FF9F2DE9004190
:100E0000DFF86080B8F10108B8F1000FFADABDE848
:100E100000812DE90041DFF84C80B8F10208B8F1FB
:100E2000000FFADABDE800812DE90041DFF83480D7
:100E3000B8F57A78B8F1000FFADABDE800812DE94B
:100E40000041DFF82080B8F16408B8F1000FFADA49
:100E5000BDE800810C080140181002400008014064
:100E6000040801400460180078F07F7FFFFF1F3CFA
:100E7000F0E0C1830000307878F07FFFFDFB1F3C7D
:100E8000FFE0C1830000E0FF78F07F7F0103060CE4
:100E9000FF60C0800000E0EFF8F07FFF070F1E3C0E
:100EA000FFE1C1830000E0FF18F0FFFFF9F3070C3A
:100EB0003F60C0800000F0FF18F0FFFFF9F3070C5F
:100EC0003060C0800000001818F0FF7F3F7B060CE8
:100ED000FFE0C19B0000E0EF78F0E0C1FFFF1F3CA6
:100EE000F0E0C183000030780103061E3060C0804E
:100EF00003060C180000C0038001030F183060C007
:100F00003F63060C0000808F9BB3E3C3E183878FB0
:100F1000B063CEB8000030F8183060C00103060C92
:100F20007F60C0800000F0FF7CF0E0C177FF7F7F32
:100F3000F0E0C193000030787FFCF0C11F7FDE3D00
:100F4000F0E0C1870000307878F07FFFFDFF1F3CA4
:100F50003060C0800000001878F07F7F070F1E3CD3
:100F6000BFE3C3830000B0EF78F07FFFFDFF1F3CBD
:100F70003167DCF0000070D818F0FF7FFEF9070C35
:100F8000FF8001030000E0FF21D3BF7F3060C080FD
:100F900003060C180000800178F0E0C1070F1E3C2A
:100FA000FFE0C1830000E0EF78F0E0C1070F1E3CD6
:100FB0008FBFE3830000808378F0E0C1FFEF9E3CA9
:100FC000F0E0E3EF00003078C7DDF1C170E0C0C1B0
:100FD000F071777C00001070C3CCB0613060E0C16C
:100FE00003060C180000800160C0FFFF7070707075
:100FF0003F7070700000F0FFFFFFFFFFFFFFFFFF7B
:10100000FFFFFFFFFFFFFFFF78F07F7FFDF91B3C35
:10101000FFE0C1830000E0EF18F0FFFFFEF9070CCE
:10102000FF8001030000E0FFD8B061C3FEFD376C14
:1010300080010306000060C078F07F7FFEFD1F3C4A
:10104000FF8001030000E0FF03061C3860C0800140
:101050000F0C18300000800760C0BF7F1830306070
:1010600003060C0C0000800118F0FF7FFFFF070C47
:10107000FFE0C1830000E0EF60C07FFFFCF81930A3
:10108000FF8001030000E0FF60C07FFFFFFF1B3017
:101090003F60C0800000F0FF78F07F7F070F1E3CAC
:1010A000FFE0C1830000E0EF0F00000EFC0738E016
:1010B00007EF011EC0E3F1800FE0783CC703781E04
:1010C000CF7B00BC9FF71F1CF8CFF9C300DEF338BD
:1010D0001EC0E3391E0FF0788FC7033C80F7E00194
:1010E0001CE03F700000F007000000703C407800FA
:1010F000210050668910C72980408883E24120047E
:10110000680130D000B4380E00005A1C160F002DB4
:10111000400B008000A0C5010100D0E2B679006854
:101120008018010000409E0024002049C813009050
:101130000008040000009C030000007810638CFF8E
:10114000001C63FC00788CF30038CEFD009073DE49
:1011500010638CFF009073BE10638CFF10638CFFD4
:1011600010638CFF008C738010638CFF0000001EE6
:101170000000003F000086E3000006C3000006C335
:10118000000006C3000006C3000086E30000003F25
:0C1190000000001E000000000000000035
:04000005080000ED02
:00000001FF
