:020000040800F2
:1000000000060020ED000008F5000008F7000008D9
:10001000F9000008FB000008FD00000800000000D7
:10002000000000000000000000000000FF000008C9
:10003000010100080000000003010008050100089C
:100040000701000807010008070100080701000870
:100050000701000807010008070100080701000860
:100060000701000807010008070100080701000850
:100070000701000807010008070100080701000840
:100080000701000807010008070100080701000830
:100090000701000807010008070100080701000820
:1000A0000701000807010008070100080701000810
:1000B0000701000807010008070100080701000800
:1000C00007010008070100080701000807010008F0
:1000D00007010008070100080701000807010008E0
:1000E00007010008070100080701000809488047C8
:1000F00009480047FEE7FEE7FEE7FEE7FEE7FEE70A
:10010000FEE7FEE7FEE7FEE704480549054A064B21
:100110007047000061020008E106000800000020AE
:1001200000060020000200200002002070477047F7
:100130007047000080B500F001F880BD84B0002059
:100140000390029041F20001C4F20201086840F4F9
:1001500080300860FFE741F20000C4F2020000684E
:1001600000F400300290039801300390FFE70299F9
:100170000020019039B9FFE70398B0F5A06018BFDF
:1001800001200190FFE70198C0070028E3D1FFE7B5
:1001900041F20000C4F2020000688003002803D589
:1001A000FFE70120029002E000200290FFE70298A2
:1001B000012851D1FFE742F20001C4F202010868B0
:1001C00040F010000860086820F007000860086828
:1001D00040F00200086041F20401C4F20201009103
:1001E0000868086008680860086840F48060086073
:1001F000086820F47C100860086840F4E810086083
:1002000041F20001C4F20201086840F08070086009
:10021000FFE741F20000C4F20200006880010028FC
:1002200001D4FFE7F5E741F20401C4F202010868D6
:1002300020F003000860086840F002000860FFE753
:1002400041F20400C4F20200006800F00C0008282B
:1002500001D0FFE7F4E700E0FFE704B070470000DB
:1002600080B541F20002C4F20202106840F00100C1
:10027000106041F20401C4F2020108680023CFF6C5
:10028000FF031840086010684FF6FF73CFF6F6635F
:1002900018401060106820F480201060086820F476
:1002A000FE00086041F20801C4F202014FF41F0091
:1002B0000860FFF73FFF4EF60851CEF200014FF005
:1002C0000060086080BD00002DE9FF5F12480168F2
:1002D00041F0080101601148416821F0706141F06E
:1002E00080614160416821F00F0141F002014160ED
:1002F000BDE8FF9F2DE9FF5F0848816811F080018C
:1003000004D1C26822F48072C26003E0C26842F481
:100310008072C260BDE8FF9F18100240000C0140CF
:100320002DE9FF5F1248016841F0080101601148A2
:10033000016821F4704141F400510160016821F429
:10034000702141F480210160BDE8FF9F2DE9FF5F2E
:100350000848816811F0100104D1C26822F0080237
:10036000C26003E0C26842F00802C260BDE8FF9FBD
:1003700018100240000C014007B59249086820F4AB
:1003800080700860086820F0FF0002F0FF0240EA79
:10039000020008608B49086840F48070086007BD5F
:1003A00003B58849086820F400700860FFF7E4FF8F
:1003B00003BD03B58349086840F400700860FFF787
:1003C000DBFF03BD07B57F49086840F400600860A3
:1003D00000F0CCF87B49086820F40060086000F069
:1003E000C5F87849086840F40060086000F0BEF87D
:1003F0007449086840F4806008607249086840F4F5
:10040000807008606F49086820F4806008604FF0D1
:10041000C502FFF7C5FF4FF07F02FFF7CAFF4FF09D
:100420000002FFF7C6FF4FF03602FFF7B9FF4FF0AB
:100430002802FFF7BEFF4FF03A02FFF7B1FF4FF07F
:100440005502FFF7B6FF4FF01102FFF7A9FF00F0CA
:100450008DF84FF02902FFF7A3FF00F087F84FF067
:100460002002FFF79DFF4FF02C02FFF799FF07BD19
:100470002DE9FF5FA1F10101A4F101044FF02A026F
:10048000FFF78EFF4FEA1022FFF793FF0246FFF7B8
:1004900090FF4FEA1122FFF78CFF0A46FFF789FF12
:1004A0004FF02B02FFF77CFF4FEA1322FFF781FF8B
:1004B0001A46FFF77EFF4FEA1422FFF77AFF224623
:1004C000FFF777FF4FF02C02FFF76AFFBDE8FF9FB1
:1004D0002DE91F443B4B1C6824F400441C600B4670
:1004E00000F1010103F10104FFF7C2FF4FF02C02FC
:1004F000FFF756FF4FEA1A22FFF75BFF5246FFF75E
:1005000058FFBDE81F842DE9FF5F0E4619463346AC
:10051000FFF7AEFF091AE41A04FB01F54FEA1A22AD
:10052000FFF747FF5246FFF744FF6D1E002DF5DA37
:10053000BDE8FF9F2DE9FF5F2349086840F00400F4
:100540000860224801684FF01131016020480168BD
:100550004FF0113101601B4908684FF0000040F472
:10056000FE400860FFF72EFFBDE8FF9F2DE9004128
:10057000DFF86080B8F10108B8F1000FFADABDE8E1
:1005800000812DE90041DFF84C80B8F10208B8F194
:10059000000FFADABDE800812DE90041DFF8348070
:1005A000B8F57A78B8F1000FFADABDE800812DE9E4
:1005B0000041DFF82080B8F16408B8F1000FFADAE2
:1005C000BDE800810C0801401810024000080140FD
:1005D00004080140046018002DE9FF5F1F6804460D
:1005E0000D464FF0200802FB06F981444C4506D326
:1005F0000446154402FB0BF989444D451ED24FEACF
:10060000D779B9F1010F2DE9FF07204629460346A6
:1006100013440C4614440CBF4FF0000A4FF6FF7A07
:10062000FFF771FFBDE8FF0714444FEA4707B8F131
:100630000108D8D103F104031F68D2E7BDE8FF9F8A
:100640002DE9FF5F4FF004054FF009064FF00C0B4A
:10065000194B002C08BFFFF7BFFF184B012C08BF38
:10066000FFF7BAFF164B022C08BFFFF7B5FF154B7B
:10067000032C08BFFFF7B0FF134B042C08BFFFF794
:10068000ABFF124B052C08BFFFF7A6FF104B062C43
:1006900008BFFFF7A1FF0F4B072C08BFFFF79CFF18
:1006A0000D4B082C08BFFFF797FF0C4B092C08BF18
:1006B000FFF792FFBDE8FF9F601C0008101C0008B8
:1006C000501C0008401C0008F01B0008E01B00083C
:1006D000301C0008201C0008D01B0008001C00086B
:1006E000FFF728FFFFF71CFEFFF7EEFD4FF00000BD
:1006F0004FF4F0734FF000014FF4A0744FF6FF7AFF
:10070000FFF701FF4FF48C704FF0C8014FF0040267
:100710004FF019064FF0190B114BFFF75DFF4FF427
:100720008C704FF032014FF004024FF01A064FF078
:10073000140B0C4BFFF750FF00F090F8444604F008
:10074000FF044FF00A05B4FBF5F44FF000044FF03E
:1007500006024FF073004FF03201FFF771FFEBE735
:10076000881D0008441D00080FB53048016841F09D
:10077000080101602E48016821F00F0141F00101DC
:1007800001602C48016841F0010101604FF0804098
:100790004FF0480181624FF6FF71C1624FF0804017
:1007A000016841F0010101600FBD2DE9FF5F2148A3
:1007B000016841F0020101601F484FF47A41016075
:1007C0001E4840F2654101601D48016841F0010189
:1007D00001601C48016841F0005101601A4801683D
:1007E00041F001010160BDE8FF9F2DE9FF5F114865
:1007F000016841F00401016014484FF47A4101603E
:10080000134840F2654101601248016841F001015E
:1008100001600C48016841F0804101600E480168A8
:1008200041F001010160BDE8FF9F00001810024087
:10083000000C01401C100240280400402C04004021
:100840000C04004000E100E00004004028080040E3
:100850002C0800400C08004000080040FFB5364856
:10086000016821F0F00141F0300101603348016876
:1008700021F40071016044F2506200F050F82F48FA
:10088000016841F4007101604FF01E0200F047F86A
:100890002948016821F0F00141F0800101604FF02A
:1008A000280200F03CF82648016811F4007FFAD1D4
:1008B0004FF0500200F033F82148016811F4007F36
:1008C000FAD04FF005064FF000074FF000084FF048
:1008D00000044FF008051A48016811F4007FFAD1AE
:1008E0001748016811F4007FFAD04FF00002144855
:1008F000016802F1010211F4007FF8D14FEA4404CB
:100900006E2A01D944F001046D1EE4D104FA07F403
:1009100048EA040807F10807761ED8D1FFBD3FB5A5
:100920004FF08040436A456AAB42FCD0521E002A19
:1009300000D0F8E73FBD0000040C01400C0C014062
:10094000080C014007B59249086820F480700860DF
:10095000086820F0FF0002F0FF0240EA0200086091
:100960008B49086840F48070086007BD03B588496A
:10097000086820F400700860FFF7E4FF03BD03B5CA
:100980008349086840F400700860FFF7DBFF03BD8F
:1009900007B57F49086840F40060086000F0CCF8B3
:1009A0007B49086820F40060086000F0C5F87849C9
:1009B000086840F40060086000F0BEF874490868F8
:1009C00040F4806008607249086840F480700860F4
:1009D0006F49086820F4806008604FF0C502FFF797
:1009E000C5FF4FF07F02FFF7CAFF4FF00002FFF78D
:1009F000C6FF4FF03602FFF7B9FF4FF02802FFF7AE
:100A0000BEFF4FF03A02FFF7B1FF4FF05502FFF77C
:100A1000B6FF4FF01102FFF7A9FF00F08DF84FF07D
:100A20002902FFF7A3FF00F087F84FF02002FFF73D
:100A30009DFF4FF02C02FFF799FF07BD2DE9FF5FE7
:100A4000A1F10101A4F101044FF02A02FFF78EFF8A
:100A50004FEA1022FFF793FF0246FFF790FF4FEA9D
:100A60001122FFF78CFF0A46FFF789FF4FF02B0298
:100A7000FFF77CFF4FEA1322FFF781FF1A46FFF7CB
:100A80007EFF4FEA1422FFF77AFF2246FFF777FF37
:100A90004FF02C02FFF76AFFBDE8FF9F2DE91F44CE
:100AA0003B4B1C6824F400441C600B4600F1010120
:100AB00003F10104FFF7C2FF4FF02C02FFF756FFCE
:100AC0004FEA1A22FFF75BFF5246FFF758FFBDE8D7
:100AD0001F842DE9FF5F0E4619463346FFF7AEFF30
:100AE000091AE41A04FB01F54FEA1A22FFF747FF3F
:100AF0005246FFF744FF6D1E002DF5DABDE8FF9F5B
:100B00002DE9FF5F2349086840F00400086022488F
:100B100001684FF011310160204801684FF0113138
:100B200001601B4908684FF0000040F4FE40086077
:100B3000FFF72EFFBDE8FF9F2DE90041DFF8608041
:100B4000B8F10108B8F1000FFADABDE800812DE92B
:100B50000041DFF84C80B8F10208B8F1000FFADA72
:100B6000BDE800812DE90041DFF83480B8F57A78DE
:100B7000B8F1000FFADABDE800812DE90041DFF895
:100B80002080B8F16408B8F1000FFADABDE80081FE
:100B90000C08014018100240000801400408014000
:100BA000046018002DE9FF5F1F6804460D464FF0F2
:100BB000200802FB06F981444C4506D3044615443F
:100BC00002FB0BF989444D451ED24FEAD779B9F1A2
:100BD000010F2DE9FF0720462946034613440C4622
:100BE00014440CBF4FF0000A4FF6FF7AFFF771FF75
:100BF000BDE8FF0714444FEA4707B8F10108D8D110
:100C000003F104031F68D2E7BDE8FF9F2DE9FF5FF2
:100C10004FF004054FF009064FF00C0B194B002C58
:100C200008BFFFF7BFFF184B012C08BFFFF7BAFF43
:100C3000164B022C08BFFFF7B5FF154B032C08BF5E
:100C4000FFF7B0FF134B042C08BFFFF7ABFF124BAD
:100C5000052C08BFFFF7A6FF104B062C08BFFFF7B7
:100C6000A1FF0F4B072C08BFFFF79CFF0D4B082C73
:100C700008BFFFF797FF0C4B092C08BFFFF792FF47
:100C8000BDE8FF9FA43000085430000894300008ED
:100C90008430000834300008243000087430000824
:100CA0006430000814300008443000082DE9FF5F6C
:100CB000B64AD2F800804FF4C8704FF019014FF0D7
:100CC00002024FF00405B8F1000FB8F1010FB8F1BE
:100CD000020FB8F1030FB8F1040FB8F1050FB8F126
:100CE000060FBDE8FF9F2DE9FF5F94469446DCF8B0
:100CF00000104FF03C02B1FBF2F303FB02F4A1EB56
:100D00000405A34ED6F8008045451CD035604FF051
:100D10000A02B5FBF2F634464FF0030240F29F1090
:100D20004FF0A401FFF772FF4FF00A0204FB02F735
:100D3000A5EB0708444640F2BD104FF0A4014FF068
:100D40000302FFF763FF4FF03C02B3FBF2F909FB2C
:100D500002FAA3EB0A0BDFF83C82D8F80060B34537
:100D60001DD0C8F800B04FF00A02BBFBF2FC64468D
:100D70004FF0E1004FF05E014FF00902FFF746FF30
:100D80004FF00A020CFB02F8ABEB080A544640F2A3
:100D90003B104FF05E014FF00902FFF737FFDFF81D
:100DA000F881D8F80060B1451CD0C8F800B04FF009
:100DB0000A02B9FBF2FA54464FF019004FF05E01F7
:100DC0004FF00902FFF722FF4FF00A020AFB02FB75
:100DD000A9EB0B044FF073004FF05E014FF00902D6
:100DE000FFF714FFFFF762FFBDE8FF9F2DE9FF5FEC
:100DF0004FF009024FF000044FF019004FF05E0170
:100E0000FFF704FF4FF000044FF073004FF05E0156
:100E1000FFF7FCFE4FF000044FF0E1004FF05E01E1
:100E2000FFF7F4FE4FF0000440F23B104FF05E017C
:100E3000FFF7ECFE40F29F104FF0A4014FF00302C9
:100E40004FF00004FFF7E2FE40F2BD104FF0A401A6
:100E50004FF00004FFF7DAFE4FF4C8704FF0BE0108
:100E60004FF001024FF00A064FF00A0B4B4BFFF711
:100E700099FE4FF0C9004FF074014FF002024FF09D
:100E80000A064FF00A0B454BFFF78CFE4FF0C900E6
:100E90004FF0A0014FF002024FF00A064FF00A0B8C
:100EA0003E4BFFF77FFEFFF701FFBDE8FF9F2DE9F7
:100EB000FF5F3B4B3B4B3C4B3C4BBDE8FF9F2DE961
:100EC000FF5F3B4805684FF00A03B5FBF3F2144699
:100ED0004FF006024FF073004FF0DC01FFF796FE73
:100EE0004FF00A0304FB03F7A5EB070844464FF055
:100EF00003024FF0B4004FF03201FFF787FEBDE868
:100F0000FF9F2DE9FF5F2B4B2B4B274BBDE8FF9F2E
:100F10002DE9FF5F294805684FF00A03B5FBF3F29E
:100F200014464FF006024FF073004FF03201FFF706
:100F30006DFE4FF00A0304FB03F7A5EB07084446D8
:100F40004FF006024FF0B4004FF03201FFF75EFEA3
:100F5000BDE8FF9F2DE9FF5FFFF7B1FFFFF7D8FF67
:100F6000FFF77CFC08F0FF01DFF850A0CAF8001082
:100F70004FEA184202F0FF02DFF834A0CAF800205E
:100F8000FFF79DFFFFF7C4FFBDE8FF9F160000209D
:100F9000120000200800002004000020B4300008E7
:100FA000942F0008B42E0008342F0008542F000896
:100FB00044000020E42E0008A42F00084800002070
:100FC00007B59249086820F480700860086820F02E
:100FD000FF0002F0FF0240EA020008608B49086847
:100FE00040F48070086007BD03B58849086820F4A4
:100FF00000700860FFF7E4FF03BD03B5834908688C
:1010000040F400700860FFF7DBFF03BD07B57F49C0
:10101000086840F40060086000F0CCF87B4908687C
:1010200020F40060086000F0C5F87849086840F4D2
:101030000060086000F0BEF87449086840F4806001
:1010400008607249086840F4807008606F49086859
:1010500020F4806008604FF0C502FFF7C5FF4FF035
:101060007F02FFF7CAFF4FF00002FFF7C6FF4FF005
:101070003602FFF7B9FF4FF02802FFF7BEFF4FF02F
:101080003A02FFF7B1FF4FF05502FFF7B6FF4FF0FE
:101090001102FFF7A9FF00F08DF84FF02902FFF7CA
:1010A000A3FF00F087F84FF02002FFF79DFF4FF0FD
:1010B0002C02FFF799FF07BD2DE9FF5FA1F10101A8
:1010C000A4F101044FF02A02FFF78EFF4FEA10222D
:1010D000FFF793FF0246FFF790FF4FEA1122FFF759
:1010E0008CFF0A46FFF789FF4FF02B02FFF77CFFCA
:1010F0004FEA1322FFF781FF1A46FFF77EFF4FEA00
:101100001422FFF77AFF2246FFF777FF4FF02C02F9
:10111000FFF76AFFBDE8FF9F2DE91F443B4B1C68AA
:1011200024F400441C600B4600F1010103F10104AA
:10113000FFF7C2FF4FF02C02FFF756FF4FEA1A22CB
:10114000FFF75BFF5246FFF758FFBDE81F842DE90C
:10115000FF5F0E4619463346FFF7AEFF091AE41A41
:1011600004FB01F54FEA1A22FFF747FF5246FFF74B
:1011700044FF6D1E002DF5DABDE8FF9F2DE9FF5FEE
:101180002349086840F004000860224801684FF0D5
:1011900011310160204801684FF0113101601B4995
:1011A00008684FF0000040F4FE400860FFF72EFF93
:1011B000BDE8FF9F2DE90041DFF86080B8F101082C
:1011C000B8F1000FFADABDE800812DE90041DFF83F
:1011D0004C80B8F10208B8F1000FFADABDE80081DE
:1011E0002DE90041DFF83480B8F57A78B8F1000FC6
:1011F000FADABDE800812DE90041DFF82080B8F17E
:101200006408B8F1000FFADABDE800810C0801406B
:101210001810024000080140040801400460180052
:101220002DE9FF5F1F6804460D464FF0200802FBC2
:1012300006F981444C4506D30446154402FB0BF9DC
:1012400089444D451ED24FEAD779B9F1010F2DE9F6
:10125000FF0720462946034613440C4614440CBF9E
:101260004FF0000A4FF6FF7AFFF771FFBDE8FF0766
:1012700014444FEA4707B8F10108D8D103F1040339
:101280001F68D2E7BDE8FF9F2DE9FF5F4FF004051F
:101290004FF009064FF00C0B194B002C08BFFFF75D
:1012A000BFFF184B012C08BFFFF7BAFF164B022CEB
:1012B00008BFFFF7B5FF154B032C08BFFFF7B0FFC2
:1012C000134B042C08BFFFF7ABFF124B052C08BFD4
:1012D000FFF7A6FF104B062C08BFFFF7A1FF0F4B2F
:1012E000072C08BFFFF79CFF0D4B082C08BFFFF72A
:1012F00097FF0C4B092C08BFFFF792FFBDE8FF9F3B
:10130000E844000898440008D8440008C84400088D
:101310007844000868440008B8440008A84400085D
:1013200058440008884400082DE9FF5FB64AD2F807
:1013300000804FF4C8704FF019014FF002024FF0D7
:101340000405B8F1000FB8F1010FB8F1020FB8F1C0
:10135000030FB8F1040FB8F1050FB8F1060FBDE89F
:10136000FF9F2DE9FF5F94469446DCF800104FF094
:101370003C02B1FBF2F303FB02F4A1EB0405A34E24
:10138000D6F8008045451CD035604FF00A02B5FB09
:10139000F2F634464FF0030240F29F104FF0A401E2
:1013A000FFF772FF4FF00A0204FB02F7A5EB0708F4
:1013B000444640F2BD104FF0A4014FF00302FFF786
:1013C00063FF4FF03C02B3FBF2F909FB02FAA3EB17
:1013D0000A0BDFF83C82D8F80060B3451DD0C8F88E
:1013E00000B04FF00A02BBFBF2FC64464FF0E10094
:1013F0004FF05E014FF00902FFF746FF4FF00A027F
:101400000CFB02F8ABEB080A544640F23B104FF0DD
:101410005E014FF00902FFF737FFDFF8F881D8F8D7
:101420000060B1451CD0C8F800B04FF00A02B9FB0B
:10143000F2FA54464FF019004FF05E014FF00902E6
:10144000FFF722FF4FF00A020AFB02FBA9EB0B0495
:101450004FF073004FF05E014FF00902FFF714FFE9
:10146000FFF762FFBDE8FF9F2DE9FF5F4FF0090224
:101470004FF000044FF019004FF05E01FFF704FF3A
:101480004FF000044FF073004FF05E01FFF7FCFED9
:101490004FF000044FF0E1004FF05E01FFF7F4FE63
:1014A0004FF0000440F23B104FF05E01FFF7ECFEFE
:1014B00040F29F104FF0A4014FF003024FF00004E0
:1014C000FFF7E2FE40F2BD104FF0A4014FF0000420
:1014D000FFF7DAFE4FF4C8704FF0BE014FF0010283
:1014E0004FF00A064FF00A0B4B4BFFF799FE4FF0F7
:1014F000C9004FF074014FF002024FF00A064FF09E
:101500000A0B454BFFF78CFE4FF0C9004FF0A001CE
:101510004FF002024FF00A064FF00A0B3E4BFFF766
:101520007FFEFFF701FFBDE8FF9F2DE9FF5F3B4B0B
:101530003B4B3C4B3C4BBDE8FF9F2DE9FF5F3B48DD
:1015400005684FF00A03B5FBF3F214464FF00302AF
:101550004FF019004FF48771FFF796FE4FF00A0322
:1015600004FB03F7A5EB070844464FF003024FF0D6
:1015700037004FF48771FFF787FEBDE8FF9F2DE925
:10158000FF5F2B4B2B4B274BBDE8FF9F2DE9FF5FE8
:10159000294805684FF00A03B5FBF3F214464FF0F3
:1015A00003024FF4B4704FF48771FFF76DFE4FF0F4
:1015B0000A0304FB03F7A5EB070844464FF00302B8
:1015C0004FF4C3704FF48771FFF75EFEBDE8FF9FD5
:1015D0002DE9FF5FFFF7B1FFFFF7D8FFFFF73EF9F7
:1015E00008F0FF01DFF850A0CAF800104FEA1842D7
:1015F00002F0FF02DFF834A0CAF80020FFF79DFFD9
:10160000FFF7C4FFBDE8FF9F160000201200002076
:101610000800002004000020F8440008D843000817
:10162000F84200087843000898430008440000206E
:1016300028430008E8430008480000202DE9FF5F28
:10164000EC49D1F80080B8F1000F08BF00F011F8A4
:10165000B8F1010F08BF00F02DF8B8F1020F08BF74
:1016600000F048F8B8F1030F08BF00F063F8BDE8D8
:10167000FF9F2DE9FF5FE04B1C68E048016811F017
:10168000400F08BF84F001041C604FF019004FF0B8
:1016900019014FF002024FF00405D74801680129F3
:1016A00002D018BF00F07AF84FF00052FFF759FE51
:1016B000BDE8FF9F2DE9FF5FD14B1C68CF48016853
:1016C00011F0400F08BF84F001041C604FF01900B6
:1016D0004FF019014FF002024FF00405C8480168AD
:1016E000012902D018BF00F0CAF8C64AFFF739FE38
:1016F000BDE8FF9F2DE9FF5FC34B1C68BF48016831
:1017000011F0400F08BF84F001041C604FF0190075
:101710004FF019014FF002024FF00405BA4801687A
:10172000012902D018BF00F0FFF8B84AFFF719FEF0
:10173000BDE8FF9F2DE9FF5F4FF019004FF0190141
:101740004FF002024FF00405B14A1368AB4801683C
:1017500011F0400F08BF83F001031360012B04D187
:10176000012B08BF0023012BFFD0A448016811F012
:10177000200F08D1A7484FF000020260A44A136866
:101780004FF000031360A34AFFF7EBFD9B4801688D
:1017900011F0000F00D0D7E7BDE8FF9F2DE9FF5FF4
:1017A0004FF0DC004FF0F0014FF002024FF018064E
:1017B0004FF0180B984BFFF733FD98484FF000019E
:1017C000016096484FF0000101608C48016811F0FB
:1017D000400F05D1924801684FF0010101603BE0E4
:1017E0008648016811F0200F0AD14FF000500168BF
:1017F00001F13C010160DFF82CB2594527D317D81D
:101800007E48016811F0800FDBD18448016801290E
:10181000DBD0824801684FF0010101604FF00050B9
:10182000016801F561610160DFF8F8B159450ED337
:10183000DFF8F0B159450AD3A1EB0B0101607A4DF5
:101840002E6806F10106072E08BF00262E604FF015
:101850000052FFF786FDB8E7674801684FF00101C5
:1018600001604FF0DC004FF486734FF0F0014FF44D
:1018700090744FF6FF7AFFF76AFCBDE8FF9F2DE9F1
:10188000FF5F4FF0DC004FF0F0014FF002024FF02D
:1018900018064FF0180B604BFFF7C2FC5748016861
:1018A00011F0400F05D1564801684FF00101016069
:1018B00027E05248016811F0200F09D15148016812
:1018C00001F13C010160DFF85CB1594515D30DD839
:1018D0004A48016811F0800FE0D14A48016801F5DB
:1018E00061610160DFF83CB1594506D3DFF834B1DE
:1018F000594502D3A1EB0B010160424AFFF731FDCC
:10190000CCE73F4801684FF0010101604FF0DC0077
:101910004FF486734FF0F0014FF490744FF6FF7A56
:10192000FFF715FCBDE8FF9F2DE9FF5F4FF0DC00DE
:101930004FF0F0014FF002024FF018064FF0180B75
:10194000354BFFF76DFCFFF78FFD38484FF0000176
:1019500001682A48016811F0400F09D12F48016839
:10196000012909D0284801684FF0010101602BE0EE
:101970002E484FF0000101682048016811F0200F47
:1019800009D12248016801F101010160DFF894B03A
:10199000594515D30DE01948016811F0800FD8D1D1
:1019A0001A48016801F13C010160DFF878B059453F
:1019B00006D3DFF870B0594502D3A1EB0B010160EB
:1019C000124AFFF7CEFCC4E70F4801684FF001014F
:1019D0000160FEF7EAFE4FF0DC004FF486734FF033
:1019E000F0014FF490744FF6FF7AFFF7B0FBBDE8BB
:1019F000FF9F00002400002064000020080C01402C
:101A0000680000204000002072000020200000201C
:101A100060000020320000206046000884000020A2
:101A200036000020805101001600002080000020B8
:101A300078F07F7FFFFF1F3CF0E0C183000030782B
:101A400078F07FFFFDFB1F3CFFE0C1830000E0FF5B
:101A500078F07F7F0103060CFF60C0800000E0EF9C
:101A6000F8F07FFF070F1E3CFFE1C1830000E0FF9D
:101A700018F0FFFFF9F3070C3F60C0800000F0FF93
:101A800018F0FFFFF9F3070C3060C0800000001869
:101A900018F0FF7F3F7B060CFFE0C19B0000E0EFEA
:101AA00078F0E0C1FFFF1F3CF0E0C1830000307818
:101AB0000103061E3060C08003060C180000C0033E
:101AC0008001030F183060C03F63060C0000808F58
:101AD0009BB3E3C3E183878FB063CEB8000030F8D7
:101AE000183060C00103060C7F60C0800000F0FF6A
:101AF0007CF0E0C177FF7F7FF0E0C1930000307899
:101B00007FFCF0C11F7FDE3DF0E0C1870000307830
:101B100078F07FFFFDFF1F3C3060C08000000018A0
:101B200078F07F7F070F1E3CBFE3C3830000B0EF58
:101B300078F07FFFFDFF1F3C3167DCF0000070D8BC
:101B400018F0FF7FFEF9070CFF8001030000E0FFA3
:101B500021D3BF7F3060C08003060C1800008001D5
:101B600078F0E0C1070F1E3CFFE0C1830000E0EF0A
:101B700078F0E0C1070F1E3C8FBFE3830000808335
:101B800078F0E0C1FFEF9E3CF0E0E3EF000030783A
:101B9000C7DDF1C170E0C0C1F071777C000010704A
:101BA000C3CCB0613060E0C103060C1800008001B6
:101BB00060C0FFFF707070703F7070700000F0FFC9
:101BC000FFFFFFFFFFFFFFFFFFFFFFFFFFFFFFFF25
:101BD00078F07F7FFDF91B3CFFE0C1830000E0EF60
:101BE00018F0FFFFFEF9070CFF8001030000E0FF83
:101BF000D8B061C3FEFD376C80010306000060C0F1
:101C000078F07F7FFEFD1F3CFF8001030000E0FFB6
:101C100003061C3860C080010F0C183000008007DC
:101C200060C0BF7F1830306003060C0C00008001DC
:101C300018F0FF7FFFFF070CFFE0C1830000E0EF1B
:101C400060C07FFFFCF81930FF8001030000E0FF57
:101C500060C07FFFFFFF1B303F60C0800000F0FFCF
:101C600078F07F7F070F1E3CFFE0C1830000E0EFAC
:101C7000F1830700E79F7FFE001EFCF800000000D4
:101C800007000000C00738000FC0073EE3E3C78726
:101C90008F71FC8FFF8F18FFF0FF0FC407F8F30759
:101CA000FC03FEF97FFE03FFE03FFFC13FF08FFF23
:101CB000F91FF0E3FCFF07F800FCFF01FF00FEFF47
:101CC000FEEF80FF70FE73E00000000000000000E7
:101CD000010C1E000748CCF0002019C61C9E2410E1
:101CE00071C08C4004000202131F08084C7C302095
:101CF00032017880C8C4010020130700804C000026
:101D00000032F10100C8C4070020130000804C1C01
:101D1000000032711F00C8047C0020130600C0CCF4
:101D200031008031CC0000E3330300CCCC0C003018
:101D3000E61900C030300000807300000078000019
:101D4000000000000F00000EFC0738E007EF011E46
:101D5000C0E3F1800FE0783CC703781ECF7B00BC66
:101D60009FF71F1CF8CFF9C300DEF3381EC0E3391C
:101D70001E0FF0788FC7033C80F7E0011CE03F7036
:101D80000000F007000000703C4078002100506621
:101D90008910C72980408883E2412004680130D03F
:101DA00000B4380E00005A1C160F002D400B0080A6
:101DB00000A0C5010100D0E2B679006880180100DA
:101DC00000409E0024002049C81300900008040031
:101DD00000009C0300000078000000003C00003C74
:101DE000307E0C001FF8FF1FE70FF8FFF0810FF0A7
:101DF0001EF0000F007E78003E007C7E7E3E007C60
:101E0000001E7E00F0000F780FF0810FFF1FF0E73B
:101E1000F8FF1FF800307E0C3C00003C0000000082
:101E200000003F00FE01F8FF01F8010E6000F8809D
:101E3000F81000F8007C040000007E001F00003F46
:101E4000800F000000C007000100E003FC0000F06C
:101E5000007E000000001F004300800FF84000E0FB
:101E6000007E6000E0E01F600080FF010000003F96
:101E7000000008000700000EE00F0000C003E001B2
:101E80006160F8C3FF2130FCC0FF010805FAFF0BB9
:101E9000FF0EFDFFFF7FEFFEB8FFBF7B2FD0FF5F80
:101EA000FF01E8FFC27F08C003C31F06E081E10F06
:101EB000F803C003007000000000380000000008B4
:101EC000000000000400000000000000000000020C
:101ED0000000010080000000000000000000004041
:101EE0000000200000100000FF030000060000E0DA
:101EF00000000C0A8003050E00000C0000180060B2
:101F000010000C0000011001008C0118FE0010C030
:101F1000000810000808004102802400401200045C
:101F2000080004010042002022001004000000000C
:101F3000AA020009038004008002800100405501CC
:101F4000A0AA00C07F006000003000F01800101050
:101F5000005A2D00AD16000C0A000600800080DA41
:101F60000240D705A08802404601200100900050A1
:101F70004C0028A2001450001A2C00621700210007
:101F80004010001D1080FF0F00010130C90008182B
:101F9000010208800008D064082020803019200049
:101FA0000C0C00080300189800184C0670267300EB
:101FB000930F0000000000E00000003E0000000061
:101FC000000000000C0000000000000030000000D5
:101FD00000000000C000000000000000000300003E
:101FE00000000000000C00000000000000300000B5
:101FF0000000000000C0000000000000000003001E
:102000000000000000000C00000000000000300094
:10201000000000000000C000010000000000BEF74A
:102020003C00000000000F12800300000000074881
:1020300001300000000003200C000300000003C07A
:102040002100180000000600840080010000060046
:102050001806000C00000C0020100060030018009F
:1020600080400000180030000001030040006000C4
:1020700000FE1F0000028000001020000018000178
:102080000040AD00004000060000B502000002085C
:102090000000D40A000008100000F87F0000404053
:1020A0000000408002000081020000011800000CC6
:1020B0000C00000640020020100000096D0900809D
:1020C000460000A4B42800009001005001A00000C8
:1020D0004002004093240300000900004C920C00D1
:1020E000002400001000200000B00000C0FFFF002E
:1020F00000C003000004800000000F0000509202A6
:1021000000003C000048494A0100F0000020252959
:102110000700C0030080FFFF120000090000927357
:102120004B0000240000483338010090020020C713
:10213000C30400400900800C0F13008062000032CD
:102140003848000008010048C12001003004002088
:102150000CC00400403000803200130000810000F9
:10216000C8014E0000020200200D2C0100081000E2
:1021700080E49F040010400000FEFF1F006000028A
:102180000050002800800018004015AA02000140FD
:10219000020055AB0A000600180054AD7F000C0089
:1021A000C000F8FFA000180000064001AB0230009C
:1021B00000300055AD0A600000800154B52A60006F
:1021C00000001850D5AAC0000000C04055ABC200A6
:1021D0000000000C55ADEA00000000C07CB5FA001C
:1021E0000000000080FF7F000000000000C00F0022
:1021F00000000000000000000000000000000000DF
:1022000000000000000000000000000000000000CE
:1022100000000000000000000000000000000000BE
:1022200000000000000000000000000000000000AE
:10223000000000000000000000000000000000009E
:10224000000000000000000000000000000000008E
:10225000000000000000000000000000000000007E
:10226000000000000000000000000000000000006E
:10227000000000000000000000000000000000005E
:10228000000000000000000000000000000000004E
:10229000000000000000000000000000000000003E
:1022A000000000000000000000000000000000002E
:1022B000000000000000000000000000000000001E
:1022C000000000000000000000000000000000000E
:1022D00000000000000000000000000000000000FE
:1022E00000000000000000000000000000000000EE
:1022F00000000000000000000000000000000000DE
:1023000000000000000000000000000000C001000C
:1023100000000000000000000000000000000000BD
:1023200000000000C00300000000000000000000EA
:10233000000000000000000000000000010000009C
:10234000000000C0000000000000000000000000CD
:1023500000000000000000000000F013000000007A
:10236000000000000000001C000000000000000051
:1023700000F00F0000000000000000000000180046
:102380000000000000000000E01F0000000000004E
:10239000000000000000000000000000000000003D
:1023A0003F000000000000EC00020000660F00008B
:1023B0000000000000000000000000000000FF7F9F
:1023C000020006000F000000000080FF0000000077
:1023D0000000000000FE7F00000600000000000278
:1023E0000000FF0F0000000000000000FEFF0000E2
:1023F000060000000000021E00FF070000000000B1
:1024000000000000FF010000000020FE00C23F06A7
:10241000FF87000000000010000000000300000023
:1024200000E0E1FF00000000FF010000000010FFDD
:102430000000000000000000FDE1FF1FC0040000DC
:102440007F0000020010FFFF0000000000000000FD
:1024500003000000000000FD0000204008FFFF7F97
:10246000000000000000000000C0000000FCFC03B1
:1024700000043F02FDFFBF3F0000008F000000008E
:1024800080000000FC3F0200463E0200FFFF7F008C
:10249000000009F300000000000000007F00004081
:1024A0002E0200FCFF3F00040001F0FF00000000CE
:1024B000000000000000FF00F47FFC3F7F3E800E24
:1024C00001F8FFFF000000400000000000F30000E2
:1024D000FFFF7F00FFFFFFFFFCFFFFFF0000F00199
:1024E00000000000F8000000FF7F0000FFFFFFFF7A
:1024F000FFFFFFFF00E001FC000000000000000003
:102500007F000078FFFFFFFFFFFFFFFFF001FCFFF0
:10251000000000000000000000007800FFFFFF7FC7
:10252000FFFFFFFF01FCFFFF000000E200000000D2
:1025300000C007007FF84300FF0500FACFFAFFFF55
:1025400000003E8000000000C0070000F8430000CB
:102550000700F27FFAFFFFFF003C800F0000000041
:102560001F0000007F0000C000FEFFFFFFFFFF070D
:102570003C008FFB0000000000000000001FC0A70F
:10258000F17FFC63FFFFF9FBF05FF8FF0000C03C48
:10259000000000000F80F8007FFC2300FFF1FFF433
:1025A0007FFCFFC700C027F00000000000F800001B
:1025B0000060001F0500F27FFCFFE3FF8007F07F53
:1025C00000000000FC0000002002BF0000F27F00BD
:1025D000FFE3FF0503F07FFC000000E000000000C7
:1025E00003FD00FEFE7F0020E3FF0700F07F4CF2BA
:1025F0000000700300000000F00078007F0000027F
:10260000FFC73FFE7F80E3E3003000F000000000E2
:1026100000F80200000003F8C73FFE7FA0E3E3FFDD
:10262000B000E27F00000000F80200000002F800A5
:102630003FFE7F00A3E3FFC700E27FE00000003021
:10264000070000001EC00788FFFF8103E3FF3FC0B3
:102650001E7B00E00000F000000000004004883F06
:10266000FF810311FF3F40FF7000E0E300BE001E4A
:102670000000000006B83F00810313C03F40FFFF89
:1026800000E0E3FFFE00DE7300000000C03F00003A
:102690000FF400193FFFFF81E0E3FFDFC03F780048
:1026A0000000003EFF000000BC001FC0FFDF810FE4
:1026B000E37FF2FF0D7C00E000003E4000000000E0
:1026C000000000FA8F810F9CBFE8FFFF7C00E0E371
:1026D000003E400C000000000000FE00810F9C0145
:1026E000F8FFFF8F00E0E3BF3E600E7C000000407B
:1026F000007E00000F7C0300FFFF8F81E0E3BFF846
:10270000B00B7C000000C03FBE000000E0010000F4
:102710000080810F03FD0000017C00E000C03FF05D
:1027200007000000110000BE80810FE0DF060000FE
:102730007C60E003C03FF0010000000000003E06A6
:10274000810FE0130700008060E003FD3FF0017C93
:10275000000000C006F003007F201E000000808102
:10276000E0031F0720000C600000C007F007000016
:10277000A01E00040080807F031F0700000840E0C7
:1027800000F80720030000001F0004F080807FE0B5
:102790001F0500000840E003F807300000000000BB
:1027A000C039F0038E7F001FF9FF017E5CE0031F3C
:1027B0000706800F000000F82FC03F003E001FC03A
:1027C000FF01FE8FE00303F302800F7C0000F80797
:1027D000F03F0000001FC02F01FE8F7F031FEFFF9F
:1027E000800F7CE0003807063F0000001FC06781B3
:1027F000FE0F3C0210F8FF010F7CE003FE0000809A
:1028000000000000C04F813F0FFC021FF8FF01FED7
:102810007CE003100000800F000000FEFF013E007E
:1028200000001FC0FF01FE0FE00318F800800F7CBE
:102830000000FE00017E0000001FC0FF01FE0F002F
:102840000318F8FF800F7CE000FE00003E0000004F
:102850001FC0FF01FE0F000018F8FF010F7CE0030E
:10286000FE0000800100000080F801D60F0000107B
:1028700040FF01F248E00300000080010000001C5E
:10288000FA07D60100000000FE01F60FE003004049
:1028900000F001600000180007DE01000018C0F918
:1028A00001EE0F000318C0FFF0015CE0001E000005
:1028B000F0010000C000FC07900F00030000FE06BE
:1028C0000140E00318003EF00F00000000FE07F09A
:1028D000070003C000FE07F040E00300003CF001E9
:1028E0000000C007FE07F00F0003C000FE07F00F56
:1028F000E00300003EF0016000C01F0007F00F0081
:102900001DC007FE07F07700030000FEF00100E0A5
:10291000C007C03DF00F0000C007FE07F057001DC4
:102920000000FE070100E00307C03DF00E0000C0FC
:1029300005F807007F001F0000F007F000E003002B
:10294000C003100000008007F807000E009F001968
:10295000F007F07FE00301000310800F008807E814
:1029600007000E009F0011F807F07F00030100F040
:10297000108007E08007C803000E00000008C007B1
:10298000D07F00FF0300C006800FE00300F807308F
:102990003C0000F818C003007F00FF0338C0069019
:1029A0007FE00303FE073EF00000F800C007803F11
:1029B00000FF0308C005F07FE0030338073EF07F07
:1029C00000F800FC00003C00FF03E8003A807F00B4
:1029D000031FD8003EF07FE0F8C0FD07002C000088
:1029E00001F80000807F00F81FF8003EF07FE00350
:1029F000C0FF073E2C0000F8F80000007F00F30342
:102A0000F8003E807FE0031FFF073EF00000E0C0BB
:102A10000700F03103ECFFF7073E80BFE0031FF82B
:102A2000073EF07F0018C0FF00F0B101F4F3F70695
:102A30003E80BF03031FF8073EF07FE01BC0FF0787
:102A4000F0F10100FFFF070080FF03FC00F8071012
:102A5000F07FE00380FF070EFF01001FFF2700D675
:102A6000FF03FCFFF807808F7FE003E0FF070AF019
:102A700001001FC82700CAED03FCFFFF07608FFF9E
:102A8000E00380F8070AF07F001FC8FF00FEFB018B
:102A9000E0FFFF2FE08FFF0303A0F8070EF07FE0B9
:102AA0001FF8FF073FFC0100FFFFFFFFFFFF03E0F0
:102AB000F8FF3FF0F0FFFF03FFFFFF3FFF0100FFC4
:102AC000FFFFFFFFFF03E0FFFF3FF0FFFFFF03F803
:102AD000FFFF3FF00000FFFFFFFF3F000FE0FFFFA1
:102AE0003FF0FFFFFF03F8FFFF3FF0FF00FFFFFF96
:102AF000FF370000E0FFFFFFF0FFFF0F03F8FF3F8D
:102B00001FF0FFFFFFFFFFFF07000000FFFFFFFFB9
:102B1000FFFF0FE0F8FF3FF0F0FFFF03FFFFFF3F75
:102B2000000000FFFFFFFF07FF0FE0FFFFCFFFFFE9
:102B3000FFFF03F8FFFFDFF10000FFFFFFFF0300CF
:102B40000FE0FFFFDFFFFFFFFF03F8FFFF3FF1FF95
:102B500000FFFFFF7F000000E0FFFFFFFFFFFF0F10
:102B600003F8FFFFFFF1FFFF070080FF00000000F8
:102B7000FFFFFFFFFFFF0FFFF8FFFFFFF1FFFF0366
:102B800000C0FFFF00000007FFFF3F00FF0FFEFF38
:102B9000FFFFFFFFFFFF03F8C0FFFFF100000F0082
:102BA000807F00000FFE7F00FFFFFFFFFF03F8FFA5
:102BB000EEFFF1FF000100000B000000FF1F00808E
:102BC000FFFFFFFFFFFFFFFFFFFFFFFF020000E02F
:102BD000000000000F008027FFFFFFFFFFFFFFFF47
:102BE000FFFFFFFF0000E2FF0000000200002000E6
:102BF000FFFFFF0FFFFFFFFFFFFFFFFF00E0FFFFF3
:102C00000000000000300000FFFF0300FFFFFFFF97
:102C1000EFFFFFFEE0FFFFFF0000000000000000EC
:102C2000C0130000FF3F00000000FEFF00E0FF0FA8
:102C30000000000000000000030000003F0000C092
:102C400000FEFFFFE0FF0F0000000000000000009A
:102C5000000000000000C001FEFFFF3FFF07000072
:102C6000000000E000000000000000000000000084
:102C7000FF7F0000000000000000007F0000000057
:102C800000000000000000007F000000000080FF46
:102C900000007F00000000000000000000000000B5
:102CA000000000000000FEFF007F000000000000A8
:102CB00000000000000000000000000000FE3F00D7
:102CC0000C000000000000000000000000000000F8
:102CD00000000000F02F00000000000000000000D5
:102CE0000000000000000000000000002F000000B5
:102CF000000000F8000000000000000000000000DC
:102D000000000000000000000000F00700000000CC
:102D100000000000000000000000000000000000B3
:102D200000B00600000000000000000000000000ED
:102D30000000000000000000A004000000000000EF
:102D40000000000000000000000000000000000083
:102D500000000000000000800000000000000000F3
:102D600000000000000000000000000000008000E3
:102D70000000000000000000000000000000000053
:102D80000000000000000000000000000000000043
:102D90000000000000000000000000000000000033
:102DA0000000000000000000000000000000000023
:102DB0000000000000000000000000000000000013
:102DC0000000000000000000000000000000000003
:102DD00000000000000000000000000000000000F3
:102DE00000000000000000000000000000000000E3
:102DF00000000000000000000000000000000000D3
:102E000000000000000000000000000000000000C2
:102E100000000000000000000000000000000000B2
:102E200000000000000000000000000000000000A2
:102E30000000000000000000000000000000000092
:102E40000000000000000000000000000000000082
:102E50000000000000000000000000000000000072
:102E60000000000000000000000000000000000062
:102E70000000000078F07F7FFFFF1F3CF0E0C1837F
:102E80000000307878F07FFFFDFB1F3CFFE0C1833E
:102E90000000E0FF78F07F7F0103060CFF60C08038
:102EA0000000E0EFF8F07FFF070F1E3CFFE1C18359
:102EB0000000E0FF18F0FFFFF9F3070C3F60C0804F
:102EC0000000F0FF18F0FFFFF9F3070C3060C0803E
:102ED0000000001818F0FF7F3F7B060CFFE0C19B4D
:102EE0000000E0EF78F0E0C1FFFF1F3CF0E0C1839D
:102EF000000030780103061E3060C08003060C1805
:102F00000000C0038001030F183060C03F63060C4F
:102F10000000808F9BB3E3C3E183878FB063CEB89B
:102F2000000030F8183060C00103060C7F60C080DC
:102F30000000F0FF7CF0E0C177FF7F7FF0E0C193FD
:102F4000000030787FFCF0C11F7FDE3DF0E0C187DC
:102F50000000307878F07FFFFDFF1F3C3060C080BC
:102F60000000001878F07F7F070F1E3CBFE3C3838B
:102F70000000B0EF78F07FFFFDFF1F3C3167DCF011
:102F8000000070D818F0FF7FFEF9070CFF800103E6
:102F90000000E0FF21D3BF7F3060C08003060C1823
:102FA0000000800178F0E0C1070F1E3CFFE0C18304
:102FB0000000E0EF78F0E0C1070F1E3C8FBFE38315
:102FC0000000808378F0E0C1FFEF9E3CF0E0E3EF8B
:102FD00000003078C7DDF1C170E0C0C1F071777CCE
:102FE00000001070C3CCB0613060E0C103060C1863
:102FF0000000800160C0FFFF707070703F707070E3
:103000000000F0FFFFFFFFFFFFFFFFFFFFFFFFFFDD
:10301000FFFFFFFF78F07F7FFDF91B3CFFE0C183DE
:103020000000E0EF18F0FFFFFEF9070CFF8001033E
:103030000000E0FFD8B061C3FEFD376C80010306DD
:10304000000060C078F07F7FFEFD1F3CFF80010321
:103050000000E0FF03061C3860C080010F0C183030
:103060000000800760C0BF7F1830306003060C0C82
:103070000000800118F0FF7FFFFF070CFFE0C18315
:103080000000E0EF60C07FFFFCF81930FF80010313
:103090000000E0FF60C07FFFFFFF1B303F60C0808B
:1030A0000000F0FF78F07F7F070F1E3CFFE0C18338
:1030B0000000E0EFF1830700E79F7FFE001EFCF8B1
:1030C0000000000007000000C00738000FC0073EE6
:1030D000E3E3C7878F71FC8FFF8F18FFF0FF0FC4EA
:1030E00007F8F307FC03FEF97FFE03FFE03FFFC193
:1030F0003FF08FFFF91FF0E3FCFF07F800FCFF0132
:10310000FF00FEFFFEEF80FF70FE73E00000000096
:1031100000000000010C1E000748CCF0002019C67A
:103120001C9E241071C08C4004000202131F08086A
:103130004C7C302032017880C8C401002013070085
:10314000804C00000032F10100C8C40700201300C9
:1031500000804C1C000032711F00C8047C0020134A
:103160000600C0CC31008031CC0000E3330300CC3A
:10317000CC0C0030E61900C0303000008073000035
:1031800000780000000000000F00000EFC0738E08F
:1031900007EF011EC0E3F1800FE0783CC703781E03
:1031A000CF7B00BC9FF71F1CF8CFF9C300DEF338BC
:1031B0001EC0E3391E0FF0788FC7033C80F7E00193
:1031C0001CE03F700000F007000000703C407800F9
:1031D000210050668910C72980408883E24120047D
:1031E000680130D000B4380E00005A1C160F002DB4
:1031F000400B008000A0C5010100D0E2B679006854
:103200008018010000409E0024002049C81300904F
:103210000008040000009C0300000078000000008B
:103220003C00003C307E0C001FF8FF1FE70FF8FF4A
:10323000F0810FF01EF0000F007E78003E007C7ED3
:103240007E3E007C001E7E00F0000F780FF0810FA4
:10325000FF1FF0E7F8FF1FF800307E0C3C00003C39
:103260000000000000003F00FE01F8FF01F8010E21
:103270006000F880F81000F8007C040000007E0078
:103280001F00003F800F000000C007000100E003A6
:10329000FC0000F0007E000000001F004300800FD3
:1032A000F84000E0007E6000E0E01F600080FF0169
:1032B0000000003F000008000700000EE00F0000C3
:1032C000C003E0016160F8C3FF2130FCC0FF0108CA
:1032D00005FAFF0BFF0EFDFFFF7FEFFEB8FFBF7B80
:1032E0002FD0FF5FFF01E8FFC27F08C003C31F06A6
:1032F000E081E10FF803C003007000000000380017
:1033000000000008000000000400000000000000B1
:10331000000000020000010080000000000000002A
:10332000000000400000200000100000FF0300002B
:10333000060000E000000C0A8003050E00000C00EF
:103340000018006010000C0000011001008C011832
:10335000FE0010C000081000080800410280240090
:103360004012000408000401004200202200100462
:1033700000000000AA02000903800400800280010E
:1033800000405501A0AA00C07F006000003000F09E
:1033900018001010005A2D00AD16000C0A0006008F
:1033A000800080DA0240D705A08802404601200153
:1033B000009000504C0028A2001450001A2C00620B
:1033C000170021004010001D1080FF0F0001013088
:1033D000C9000818010208800008D0640820208075
:1033E000301920000C0C00080300189800184C0637
:1033F00070267300930F0000000000E00000003E04
:1034000000000000000000000C00000000000000B0
:103410003000000000000000C000000000000000BC
:103420000003000000000000000C0000000000008D
:10343000003000000000000000C00000000000009C
:10344000000003000000000000000C00000000006D
:1034500000003000000000000000C000010000007B
:103460000000BEF73C00000000000F1280030000C7
:103470000000074801300000000003200C0003009A
:10348000000003C021001800000006008400800135
:10349000000006001806000C00000C002010006060
:1034A00003001800804000001800300000010300F5
:1034B0004000600000FE1F0000028000001020009D
:1034C000001800010040AD00004000060000B502F9
:1034D000000002080000D40A000008100000F87F75
:1034E0000000404000004080020000810200000116
:1034F0001800000C0C00000640020020100000091B
:103500006D090080460000A4B4280000900100501E
:1035100001A00000400200409324030000090000C5
:103520004C920C00002400001000200000B00000AD
:10353000C0FFFF0000C003000004800000000F0077
:103540000050920200003C000048494A0100F0008F
:10355000002025290700C0030080FFFF120000099A
:10356000000092734B0000240000483338010090A3
:10357000020020C7C30400400900800C0F13008024
:10358000620000323848000008010048C1200100F4
:10359000300400200CC004004030008032001300D2
:1035A00000810000C8014E0000020200200D2C0125
:1035B0000008100080E49F040010400000FEFF1F80
:1035C000006000020050002800800018004015AA8A
:1035D00002000140020055AB0A000600180054AD7D
:1035E0007F000C00C000F8FFA0001800000640019A
:1035F000AB02300000300055AD0A6000008001547D
:10360000B52A600000001850D5AAC0000000C040D4
:1036100055ABC2000000000C55ADEA00000000C030
:103620007CB5FA000000000080FF7F000000000071
:1036300000C00F00000000000000000000000000BB
:10364000000000000000000000000000000000007A
:10365000000000000000000000000000000000006A
:10366000000000000000000000000000000000005A
:10367000000000000000000000000000000000004A
:10368000000000000000000000000000000000003A
:10369000000000000000000000000000000000002A
:1036A000000000000000000000000000000000001A
:1036B000000000000000000000000000000000000A
:1036C00000000000000000000000000000000000FA
:1036D00000000000000000000000000000000000EA
:1036E00000000000000000000000000000000000DA
:1036F00000000000000000000000000000000000CA
:1037000000000000000000000000000000000000B9
:1037100000000000000000000000000000000000A9
:103720000000000000000000000000000000000099
:103730000000000000000000000000000000000089
:103740000000000000000000000000000000000079
:1037500000C00100000000000000000000000000A8
:103760000000000000000000C00300000000000096
:103770000000000000000000000000000000000049
:1037800001000000000000C0000000000000000078
:103790000000000000000000000000000000F01326
:1037A00000000000000000000000001C00000000FD
:1037B0000000000000F00F0000000000000000000A
:1037C000000018000000000000000000E01F0000E2
:1037D00000000000000000000000000000000000E9
:1037E000000000003F000000000000EC00020000AC
:1037F000660F000000000000000000000000000054
:103800000000FF7F020006000F000000000080FFA4
:10381000000000000000000000FE7F000006000025
:10382000000000020000FF0F000000000000000088
:10383000FEFF0000060000000000021E00FF07005F
:103840000000000000000000FF010000000020FE5A
:1038500000C23F06FF8700000000001000000000CB
:103860000300000000E0E1FF00000000FF01000095
:10387000000010FF0000000000000000FDE1FF1F3D
:10388000C00400007F0000020010FFFF00000000E5
:103890000000000003000000000000FD00002040C8
:1038A00008FFFF7F000000000000000000C00000D3
:1038B00000FCFC0300043F02FDFFBF3F0000008F3F
:1038C0000000000080000000FC3F0200463E0200B5
:1038D000FFFF7F00000009F300000000000000006F
:1038E0007F0000402E0200FCFF3F00040001F0FFBB
:1038F00000000000000000000000FF00F47FFC3F1B
:103900007F3E800E01F8FFFF000000400000000035
:1039100000F30000FFFF7F00FFFFFFFFFCFFFFFF42
:103920000000F00100000000F8000000FF7F000030
:10393000FFFFFFFFFFFFFFFF00E001FC00000000B2
:10394000000000007F000078FFFFFFFFFFFFFFFF88
:10395000F001FCFF00000000000000000000780003
:10396000FFFFFF7FFFFFFFFF01FCFFFF000000E202
:103970000000000000C007007FF84300FF0500FAC8
:10398000CFFAFFFF00003E8000000000C0070000EB
:10399000F84300000700F27FFAFFFFFF003C800FB2
:1039A000000000001F0000007F0000C000FEFFFFBD
:1039B000FFFFFF073C008FFB00000000000000003D
:1039C000001FC0A7F17FFC63FFFFF9FBF05FF8FF6A
:1039D0000000C03C000000000F80F8007FFC2300C6
:1039E000FFF1FFF47FFCFFC700C027F000000000DC
:1039F00000F800000060001F0500F27FFCFFE3FFFD
:103A00008007F07F00000000FC0000002002BF00E3
:103A100000F27F00FFE3FF0503F07FFC000000E001
:103A20000000000003FD00FEFE7F0020E3FF070012
:103A3000F07F4CF20000700300000000F0007800FE
:103A40007F000002FFC73FFE7F80E3E3003000F00D
:103A50000000000000F80200000003F8C73FFE7FEE
:103A6000A0E3E3FFB000E27F00000000F8020000E6
:103A70000002F8003FFE7F00A3E3FFC700E27FE003
:103A800000000030070000001EC00788FFFF810310
:103A9000E3FF3FC01E7B00E00000F00000000000DC
:103AA0004004883FFF810311FF3F40FF7000E0E3C7
:103AB00000BE001E0000000006B83F00810313C0D6
:103AC0003F40FFFF00E0E3FFFE00DE730000000068
:103AD000C03F00000FF400193FFFFF81E0E3FFDF6C
:103AE000C03F78000000003EFF000000BC001FC087
:103AF000FFDF810FE37FF2FF0D7C00E000003E401E
:103B000000000000000000FA8F810F9CBFE8FFFF5B
:103B10007C00E0E3003E400C000000000000FE00DE
:103B2000810F9C01F8FFFF8F00E0E3BF3E600E7C39
:103B300000000040007E00000F7C0300FFFF8F812B
:103B4000E0E3BFF8B00B7C000000C03FBE00000007
:103B5000E00100000080810F03FD0000017C00E017
:103B600000C03FF007000000110000BE80810FE0A0
:103B7000DF0600007C60E003C03FF00100000000B1
:103B800000003E06810FE0130700008060E003FDA7
:103B90003FF0017C000000C006F003007F201E0003
:103BA00000008081E0031F0720000C600000C007B8
:103BB000F0070000A01E00040080807F031F0700A4
:103BC000000840E000F80720030000001F0004F098
:103BD00080807FE01F0500000840E003F807300008
:103BE00000000000C039F0038E7F001FF9FF017E46
:103BF0005CE0031F0706800F000000F82FC03F00A5
:103C00003E001FC0FF01FE8FE00303F302800F7C24
:103C10000000F807F03F0000001FC02F01FE8F7F5B
:103C2000031FEFFF800F7CE0003807063F00000015
:103C30001FC06781FE0F3C0210F8FF010F7CE003FC
:103C4000FE00008000000000C04F813F0FFC021FFB
:103C5000F8FF01FE7CE003100000800F000000FE72
:103C6000FF013E0000001FC0FF01FE0FE00318F837
:103C700000800F7C0000FE00017E0000001FC0FFDE
:103C800001FE0F000318F8FF800F7CE000FE00002B
:103C90003E0000001FC0FF01FE0F000018F8FF01EA
:103CA0000F7CE003FE0000800100000080F801D6D8
:103CB0000F00001040FF01F248E003000000800107
:103CC0000000001CFA07D60100000000FE01F60FFC
:103CD000E003004000F001600000180007DE010072
:103CE0000018C0F901EE0F000318C0FFF0015CE0FE
:103CF000001E0000F0010000C000FC07900F000350
:103D00000000FE060140E00318003EF00F00000036
:103D100000FE07F0070003C000FE07F040E00300CC
:103D2000003CF0010000C007FE07F00F0003C000D8
:103D3000FE07F00FE00300003EF0016000C01F002E
:103D400007F00F001DC007FE07F07700030000FE1C
:103D5000F00100E0C007C03DF00F0000C007FE0703
:103D6000F057001D0000FE070100E00307C03DF012
:103D70000E0000C005F807007F001F0000F007F0EC
:103D800000E00300C003100000008007F807000EE9
:103D9000009F0019F007F07FE00301000310800F7F
:103DA000008807E807000E009F0011F807F07F0069
:103DB000030100F0108007E08007C803000E000038
:103DC0000008C007D07F00FF0300C006800FE0039B
:103DD00000F807303C0000F818C003007F00FF0324
:103DE00038C006907FE00303FE073EF00000F800B5
:103DF000C007803F00FF0308C005F07FE0030338E1
:103E0000073EF07F00F800FC00003C00FF03E800E4
:103E10003A807F00031FD8003EF07FE0F8C0FD0726
:103E2000002C000001F80000807F00F81FF8003E21
:103E3000F07FE003C0FF073E2C0000F8F800000010
:103E40007F00F303F8003E807FE0031FFF073EF092
:103E50000000E0C00700F03103ECFFF7073E80BF31
:103E6000E0031FF8073EF07F0018C0FF00F0B1012B
:103E7000F4F3F7063E80BF03031FF8073EF07FE030
:103E80001BC0FF07F0F10100FFFF070080FF03FCEC
:103E900000F80710F07FE00380FF070EFF01001F0E
:103EA000FF2700D6FF03FCFFF807808F7FE003E0C9
:103EB000FF070AF001001FC82700CAED03FCFFFF3F
:103EC00007608FFFE00380F8070AF07F001FC8FF3C
:103ED00000FEFB01E0FFFF2FE08FFF0303A0F807C8
:103EE0000EF07FE01FF8FF073FFC0100FFFFFFFF20
:103EF000FFFF03E0F8FF3FF0F0FFFF03FFFFFF3F8E
:103F0000FF0100FFFFFFFFFFFF03E0FFFF3FF0FFA8
:103F1000FFFF03F8FFFF3FF00000FFFFFFFF3F0040
:103F20000FE0FFFF3FF0FFFFFF03F8FFFF3FF0FF51
:103F300000FFFFFFFF370000E0FFFFFFF0FFFF0F74
:103F400003F8FF3F1FF0FFFFFFFFFFFF0700000028
:103F5000FFFFFFFFFFFF0FE0F8FF3FF0F0FFFF0361
:103F6000FFFFFF3F000000FFFFFFFF07FF0FE0FF25
:103F7000FFCFFFFFFFFF03F8FFFFDFF10000FFFFB0
:103F8000FFFF03000FE0FFFFDFFFFFFFFF03F8FF6E
:103F9000FF3FF1FF00FFFFFF7F000000E0FFFFFF9A
:103FA000FFFFFF0F03F8FFFFFFF1FFFF070080FF98
:103FB00000000000FFFFFFFFFFFF0FFFF8FFFFFF04
:103FC000F1FFFF0300C0FFFF00000007FFFF3F00FD
:103FD000FF0FFEFFFFFFFFFFFFFF03F8C0FFFFF132
:103FE00000000F00807F00000FFE7F00FFFFFFFF3B
:103FF000FF03F8FFEEFFF1FF000100000B000000DF
:10400000FF1F0080FFFFFFFFFFFFFFFFFFFFFFFF1E
:10401000020000E0000000000F008027FFFFFFFF0C
:10402000FFFFFFFFFFFFFFFF0000E2FF00000002B5
:1040300000002000FFFFFF0FFFFFFFFFFFFFFFFF5C
:1040400000E0FFFF0000000000300000FFFF030061
:10405000FFFFFFFFEFFFFFFEE0FFFFFF000000009C
:1040600000000000C0130000FF3F00000000FEFF42
:1040700000E0FF0F0000000000000000030000004F
:104080003F0000C000FEFFFFE0FF0F000000000047
:1040900000000000000000000000C001FEFFFF3F24
:1040A000FF070000000000E000000000000000002A
:1040B00000000000FF7F0000000000000000007F03
:1040C0000000000000000000000000007F00000071
:1040D000000080FF00007F000000000000000000E2
:1040E00000000000000000000000FEFF007F000054
:1040F00000000000000000000000000000000000C0
:1041000000FE3F000C000000000000000000000066
:104110000000000000000000F02F00000000000080
:10412000000000000000000000000000000000008F
:104130002F000000000000F8000000000000000058
:104140000000000000000000000000000000F00778
:10415000000000000000000000000000000000005F
:104160000000000000B00600000000000000000099
:10417000000000000000000000000000A00400009B
:10418000000000000000000000000000000000002F
:10419000000000000000000000000080000000009F
:1041A000000000000000000000000000000000000F
:1041B000000080000000000000000000000000007F
:1041C00000000000000000000000000000000000EF
:1041D00000000000000000000000000000000000DF
:1041E00000000000000000000000000000000000CF
:1041F00000000000000000000000000000000000BF
:1042000000000000000000000000000000000000AE
:10421000000000000000000000000000000000009E
:10422000000000000000000000000000000000008E
:10423000000000000000000000000000000000007E
:10424000000000000000000000000000000000006E
:10425000000000000000000000000000000000005E
:10426000000000000000000000000000000000004E
:10427000000000000000000000000000000000003E
:10428000000000000000000000000000000000002E
:10429000000000000000000000000000000000001E
:1042A000000000000000000000000000000000000E
:1042B000000000000000000078F07F7FFFFF1F3C3F
:1042C000F0E0C1830000307878F07FFFFDFB1F3CF9
:1042D000FFE0C1830000E0FF78F07F7F0103060C60
:1042E000FF60C0800000E0EFF8F07FFF070F1E3C8A
:1042F000FFE1C1830000E0FF18F0FFFFF9F3070CB6
:104300003F60C0800000F0FF18F0FFFFF9F3070CDA
:104310003060C0800000001818F0FF7F3F7B060C63
:10432000FFE0C19B0000E0EF78F0E0C1FFFF1F3C21
:10433000F0E0C183000030780103061E3060C080C9
:1043400003060C180000C0038001030F183060C082
:104350003F63060C0000808F9BB3E3C3E183878F2C
:10436000B063CEB8000030F8183060C00103060C0E
:104370007F60C0800000F0FF7CF0E0C177FF7F7FAE
:10438000F0E0C193000030787FFCF0C11F7FDE3D7C
:10439000F0E0C1870000307878F07FFFFDFF1F3C20
:1043A0003060C0800000001878F07F7F070F1E3C4F
:1043B000BFE3C3830000B0EF78F07FFFFDFF1F3C39
:1043C0003167DCF0000070D818F0FF7FFEF9070CB1
:1043D000FF8001030000E0FF21D3BF7F3060C08079
:1043E00003060C180000800178F0E0C1070F1E3CA6
:1043F000FFE0C1830000E0EF78F0E0C1070F1E3C52
:104400008FBFE3830000808378F0E0C1FFEF9E3C24
:10441000F0E0E3EF00003078C7DDF1C170E0C0C12B
:10442000F071777C00001070C3CCB0613060E0C1E7
:1044300003060C180000800160C0FFFF70707070F0
:104440003F7070700000F0FFFFFFFFFFFFFFFFFFF6
:10445000FFFFFFFFFFFFFFFF78F07F7FFDF91B3CB1
:10446000FFE0C1830000E0EF18F0FFFFFEF9070C4A
:10447000FF8001030000E0FFD8B061C3FEFD376C90
:1044800080010306000060C078F07F7FFEFD1F3CC6
:10449000FF8001030000E0FF03061C3860C08001BC
:1044A0000F0C18300000800760C0BF7F18303060EC
:1044B00003060C0C0000800118F0FF7FFFFF070CC3
:1044C000FFE0C1830000E0EF60C07FFFFCF819301F
:1044D000FF8001030000E0FF60C07FFFFFFF1B3093
:1044E0003F60C0800000F0FF78F07F7F070F1E3C28
:1044F000FFE0C1830000E0EFF1830700E79F7FFE4C
:10450000001EFCF80000000007000000C007380093
:104510000FC0073EE3E3C7878F71FC8FFF8F18FF43
:10452000F0FF0FC407F8F307FC03FEF97FFE03FF5B
:10453000E03FFFC13FF08FFFF91FF0E3FCFF07F8FA
:1045400000FCFF01FF00FEFFFEEF80FF70FE73E046
:104550000000000000000000010C1E000748CCF025
:10456000002019C61C9E241071C08C400400020259
:10457000131F08084C7C302032017880C8C4010029
:1045800020130700804C00000032F10100C8C4076E
:104590000020130000804C1C000032711F00C80472
:1045A0007C0020130600C0CC31008031CC0000E339
:1045B000330300CCCC0C0030E61900C030300000D2
:1045C0008073000000780000000000000F00000E63
:1045D000FC0738E007EF011EC0E3F1800FE0783CF4
:1045E000C703781ECF7B00BC9FF71F1CF8CFF9C311
:1045F00000DEF3381EC0E3391E0FF0788FC7033C8E
:1046000080F7E0011CE03F700000F0070000007040
:104610003C407800210050668910C729804088837B
:10462000E2412004680130D000B4380E00005A1C6A
:10463000160F002D400B008000A0C5010100D0E244
:10464000B67900688018010000409E0024002049CF
:10465000C81300900008040000009C0300000078CC
:10466000000000003C00003C307E0C001FF8FF1FE3
:10467000E70FF8FFF0810FF01EF0000F007E7800CA
:104680003E007C7E7E3E007C001E7E00F0000F78A7
:104690000FF0810FFF1FF0E7F8FF1FF800307E0CCE
:1046A0003C00003C0000000000003F00FE01F8FF5D
:1046B00001F8010E6000F880F81000F8007C04009A
:1046C00000007E001F00003F800F000000C00700B8
:1046D0000100E003FC0000F0007E000000001F006D
:1046E0004300800FF84000E0007E6000E0E01F60C3
:1046F0000080FF010000003F000008000700000EDE
:10470000E00F0000C003E0016160F8C3FF2130FC4E
:10471000C0FF010805FAFF0BFF0EFDFFFF7FEFFE54
:10472000B8FFBF7B2FD0FF5FFF01E8FFC27F08C04B
:1047300003C31F06E081E10FF803C003007000000F
:104740000000380000000008000000000400000025
:1047500000000000000000020000010080000000D6
:1047600000000000000000400000200000100000D9
:10477000FF030000060000E000000C0A8003050EA5
:1047800000000C000018006010000C000001100177
:10479000008C0118FE0010C000081000080800413D
:1047A000028024004012000408000401004200209E
:1047B0002200100400000000AA0200090380040087
:1047C0008002800100405501A0AA00C07F00600067
:1047D000003000F018001010005A2D00AD16000C2B
:1047E0000A000600800080DA0240D705A088024057
:1047F00046012001009000504C0028A200145000F7
:104800001A2C0062170021004010001D1080FF0FBD
:1048100000010130C9000818010208800008D064B6
:1048200008202080301920000C0C00080300189884
:1048300000184C0670267300930F0000000000E083
:104840000000003E00000000000000000C0000001E
:10485000000000003000000000000000C000000068
:10486000000000000003000000000000000C000039
:1048700000000000003000000000000000C0000048
:1048800000000000000003000000000000000C0019
:104890000000000000003000000000000000C00028
:1048A000010000000000BEF73C00000000000F12F5
:1048B00080030000000007480130000000000320D2
:1048C0000C000300000003C02100180000000600D7
:1048D00084008001000006001806000C00000C0097
:1048E0002010006003001800804000001800300015
:1048F000000103004000600000FE1F000002800075
:1049000000102000001800010040AD00004000062B
:104910000000B502000002080000D40A00000810E0
:104920000000F87F0000404000004080020000814D
:10493000020000011800000C0C00000640020020DC
:10494000100000096D090080460000A4B428000092
:104950009001005001A00000400200409324030099
:10496000000900004C920C00002400001000200000
:1049700000B00000C0FFFF0000C003000004800082
:1049800000000F000050920200003C000048494A1D
:104990000100F000002025290700C0030080FFFF70
:1049A00012000009000092734B00002400004833FD
:1049B00038010090020020C7C30400400900800CA9
:1049C0000F130080620000323848000008010048E0
:1049D000C1200100300400200CC0040040300080E1
:1049E0003200130000810000C8014E0000020200E6
:1049F000200D2C010008100080E49F0400104000EE
:104A000000FEFF1F00600002005000280080001818
:104A1000004015AA02000140020055AB0A00060042
:104A2000180054AD7F000C00C000F8FFA000180073
:104A300000064001AB02300000300055AD0A6000B6
:104A400000800154B52A600000001850D5AAC000AB
:104A50000000C04055ABC2000000000C55ADEA009C
:104A6000000000C07CB5FA000000000080FF7F005D
:104A70000000000000C00F00000000000000000067
:104A80000000000000000000000000000000000026
:104A90000000000000000000000000000000000016
:104AA0000000000000000000000000000000000006
:104AB00000000000000000000000000000000000F6
:104AC00000000000000000000000000000000000E6
:104AD00000000000000000000000000000000000D6
:104AE00000000000000000000000000000000000C6
:104AF00000000000000000000000000000000000B6
:104B000000000000000000000000000000000000A5
:104B10000000000000000000000000000000000095
:104B20000000000000000000000000000000000085
:104B30000000000000000000000000000000000075
:104B40000000000000000000000000000000000065
:104B50000000000000000000000000000000000055
:104B60000000000000000000000000000000000045
:104B70000000000000000000000000000000000035
:104B80000000000000000000000000000000000025
:104B90000000000000C00100000000000000000054
:104BA000000000000000000000000000C003000042
:104BB00000000000000000000000000000000000F5
:104BC0000000000001000000000000C00000000024
:104BD00000000000000000000000000000000000D5
:104BE0000000F01300000000000000000000001CA6
:104BF000000000000000000000F00F0000000000B6
:104C0000000000000000180000000000000000008C
:104C1000E01F000000000000000000000000000095
:104C200000000000000000003F000000000000EC59
:104C300000020000660F00000000000000000000FD
:104C4000000000000000FF7F020006000F000000CF
:104C5000000080FF000000000000000000FE7F0058
:104C600000060000000000020000FF0F000000002E
:104C700000000000FEFF0000060000000000021E11
:104C800000FF07000000000000000000FF0100001E
:104C9000000020FE00C23F06FF8700000000001059
:104CA000000000000300000000E0E1FF0000000041
:104CB000FF010000000010FF0000000000000000E5
:104CC000FDE1FF1FC00400007F0000020010FFFF95
:104CD000000000000000000003000000000000FDD4
:104CE0000000204008FFFF7F0000000000000000DF
:104CF00000C0000000FCFC0300043F02FDFFBF3FBA
:104D00000000008F0000000080000000FC3F020057
:104D1000463E0200FFFF7F00000009F30000000094
:104D2000000000007F0000402E0200FCFF3F000456
:104D30000001F0FF00000000000000000000FF0084
:104D4000F47FFC3F7F3E800E01F8FFFF0000004033
:104D50000000000000F30000FFFF7F00FFFFFFFFE7
:104D6000FCFFFFFF0000F00100000000F800000061
:104D7000FF7F0000FFFFFFFFFFFFFFFF00E001FCE0
:104D800000000000000000007F000078FFFFFFFF30
:104D9000FFFFFFFFF001FCFF00000000000000002B
:104DA00000007800FFFFFF7FFFFFFFFF01FCFFFF18
:104DB000000000E20000000000C007007FF8430090
:104DC000FF0500FACFFAFFFF00003E800000000060
:104DD000C0070000F84300000700F27FFAFFFFFF62
:104DE000003C800F000000001F0000007F0000C09A
:104DF00000FEFFFFFFFFFF073C008FFB00000000ED
:104E000000000000001FC0A7F17FFC63FFFFF9FB5B
:104E1000F05FF8FF0000C03C000000000F80F800C9
:104E20007FFC2300FFF1FFF47FFCFFC700C027F0E9
:104E30000000000000F800000060001F0500F27F85
:104E4000FCFFE3FF8007F07F00000000FC00000093
:104E50002002BF0000F27F00FFE3FF0503F07FFCAC
:104E6000000000E00000000003FD00FEFE7F0020C7
:104E7000E3FF0700F07F4CF2000070030000000029
:104E8000F00078007F000002FFC73FFE7F80E3E371
:104E9000003000F00000000000F80200000003F8FD
:104EA000C73FFE7FA0E3E3FFB000E27F0000000009
:104EB000F80200000002F8003FFE7F00A3E3FFC7F6
:104EC00000E27FE000000030070000001EC00788FD
:104ED000FFFF8103E3FF3FC01E7B00E00000F00006
:104EE000000000004004883FFF810311FF3F40FFA6
:104EF0007000E0E300BE001E0000000006B83F00A6
:104F0000810313C03F40FFFF00E0E3FFFE00DE73BC
:104F100000000000C03F00000FF400193FFFFF81B8
:104F2000E0E3FFDFC03F78000000003EFF0000002C
:104F3000BC001FC0FFDF810FE37FF2FF0D7C00E0AC
:104F400000003E4000000000000000FA8F810F9C2E
:104F5000BFE8FFFF7C00E0E3003E400C00000000E3
:104F60000000FE00810F9C01F8FFFF8F00E0E3BF0F
:104F70003E600E7C00000040007E00000F7C0300BD
:104F8000FFFF8F81E0E3BFF8B00B7C000000C03F63
:104F9000BE000000E00100000080810F03FD000062
:104FA000017C00E000C03FF007000000110000BEDF
:104FB00080810FE0DF0600007C60E003C03FF0016D
:104FC0000000000000003E06810FE0130700008093
:104FD00060E003FD3FF0017C000000C006F003002C
:104FE0007F201E0000008081E0031F0720000C606E
:104FF0000000C007F0070000A01E00040080807FB2
:10500000031F0700000840E000F80720030000002D
:105010001F0004F080807FE01F0500000840E003CF
:10502000F807300000000000C039F0038E7F001F39
:10503000F9FF017E5CE0031F0706800F000000F807
:105040002FC03F003E001FC0FF01FE8FE00303F3AF
:1050500002800F7C0000F807F03F0000001FC02F07
:1050600001FE8F7F031FEFFF800F7CE000380706F3
:105070003F0000001FC06781FE0F3C0210F8FF01D7
:105080000F7CE003FE00008000000000C04F813F65
:105090000FFC021FF8FF01FE7CE003100000800FF0
:1050A000000000FEFF013E0000001FC0FF01FE0FD8
:1050B000E00318F800800F7C0000FE00017E000075
:1050C000001FC0FF01FE0F000318F8FF800F7CE0F7
:1050D00000FE00003E0000001FC0FF01FE0F0000A8
:1050E00018F8FF010F7CE003FE00008001000000C3
:1050F00080F801D60F00001040FF01F248E00300E5
:10510000000080010000001CFA07D601000000002A
:10511000FE01F60FE003004000F0016000001800FF
:1051200007DE01000018C0F901EE0F000318C0FFF0
:10513000F0015CE0001E0000F0010000C000FC0770
:10514000900F00030000FE060140E00318003EF04F
:105150000F00000000FE07F0070003C000FE07F08C
:1051600040E00300003CF0010000C007FE07F00F24
:105170000003C000FE07F00FE00300003EF00160F6
:1051800000C01F0007F00F001DC007FE07F07700EA
:10519000030000FEF00100E0C007C03DF00F00007A
:1051A000C007FE07F057001D0000FE070100E003E6
:1051B00007C03DF00E0000C005F807007F001F008B
:1051C00000F007F000E00300C003100000008007BB
:1051D000F807000E009F0019F007F07FE0030100C0
:1051E0000310800F008807E807000E009F0011F8E9
:1051F00007F07F00030100F0108007E08007C8037C
:10520000000E00000008C007D07F00FF0300C006AA
:10521000800FE00300F807303C0000F818C00300DE
:105220007F00FF0338C006907FE00303FE073EF0D7
:105230000000F800C007803F00FF0308C005F07FB2
:10524000E0030338073EF07F00F800FC00003C005C
:10525000FF03E8003A807F00031FD8003EF07FE0A4
:10526000F8C0FD07002C000001F80000807F00F866
:105270001FF8003EF07FE003C0FF073E2C0000F85F
:10528000F80000007F00F303F8003E807FE0031F7A
:10529000FF073EF00000E0C00700F03103ECFFF72D
:1052A000073E80BFE0031FF8073EF07F0018C0FFF5
:1052B00000F0B101F4F3F7063E80BF03031FF807C7
:1052C0003EF07FE01BC0FF07F0F10100FFFF070089
:1052D00080FF03FC00F80710F07FE00380FF070E5B
:1052E000FF01001FFF2700D6FF03FCFFF807808F98
:1052F0007FE003E0FF070AF001001FC82700CAEDA6
:1053000003FCFFFF07608FFFE00380F8070AF07FD0
:10531000001FC8FF00FEFB01E0FFFF2FE08FFF032F
:1053200003A0F8070EF07FE01FF8FF073FFC010025
:10533000FFFFFFFFFFFF03E0F8FF3FF0F0FFFF0379
:10534000FFFFFF3FFF0100FFFFFFFFFFFF03E0FF45
:10535000FF3FF0FFFFFF03F8FFFF3FF00000FFFFFC
:10536000FFFF3F000FE0FFFF3FF0FFFFFF03F8FFED
:10537000FF3FF0FF00FFFFFFFF370000E0FFFFFFF0
:10538000F0FFFF0F03F8FF3F1FF0FFFFFFFFFFFFDE
:1053900007000000FFFFFFFFFFFF0FE0F8FF3FF0F7
:1053A000F0FFFF03FFFFFF3F000000FFFFFFFF07CD
:1053B000FF0FE0FFFFCFFFFFFFFF03F8FFFFDFF16D
:1053C0000000FFFFFFFF03000FE0FFFFDFFFFFFF15
:1053D000FF03F8FFFF3FF1FF00FFFFFF7F0000002A
:1053E000E0FFFFFFFFFFFF0F03F8FFFFFFF1FFFFED
:1053F000070080FF00000000FFFFFFFFFFFF0FFF1F
:10540000F8FFFFFFF1FFFF0300C0FFFF00000007F0
:10541000FFFF3F00FF0FFEFFFFFFFFFFFFFF03F84F
:10542000C0FFFFF100000F00807F00000FFE7F0033
:10543000FFFFFFFFFF03F8FFEEFFF1FF0001000099
:105440000B000000FF1F0080FFFFFFFFFFFFFFFFBB
:10545000FFFFFFFF020000E0000000000F008027B8
:10546000FFFFFFFFFFFFFFFFFFFFFFFF0000E2FF67
:105470000000000200002000FFFFFF0FFFFFFFFF02
:10548000FFFFFFFF00E0FFFF000000000030000012
:10549000FFFF0300FFFFFFFFEFFFFFFEE0FFFFFF47
:1054A0000000000000000000C0130000FF3F0000EB
:1054B0000000FEFF00E0FF0F000000000000000001
:1054C000030000003F0000C000FEFFFFE0FF0F00F0
:1054D0000000000000000000000000000000C0010B
:1054E000FEFFFF3FFF070000000000E0000000009B
:1054F0000000000000000000FF7F0000000000002E
:105500000000007F0000000000000000000000001C
:105510007F000000000080FF00007F00000000000E
:105520000000000000000000000000000000FEFF7E
:10553000007F0000000000000000000000000000EC
:105540000000000000FE3F000C0000000000000012
:10555000000000000000000000000000F02F00002C
:10556000000000000000000000000000000000003B
:10557000000000002F000000000000F80000000004
:10558000000000000000000000000000000000001B
:105590000000F00700000000000000000000000014
:1055A000000000000000000000B006000000000045
:1055B00000000000000000000000000000000000EB
:1055C000A004000000000000000000000000000037
:1055D000000000000000000000000000000000804B
:1055E00000000000000000000000000000000000BB
:1055F000000000000000800000000000000000002B
:10560000000000000000000000000000000000009A
:10561000000000000000000000000000000000008A
:10562000000000000000000000000000000000007A
:10563000000000000000000000000000000000006A
:10564000000000000000000000000000000000005A
:10565000000000000000000000000000000000004A
:10566000000000000000000000000000000000003A
:10567000000000000000000000000000000000002A
:10568000000000000000000000000000000000001A
:10569000000000000000000000000000000000000A
:1056A00000000000000000000000000000000000FA
:1056B00000000000000000000000000000000000EA
:1056C00000000000000000000000000000000000DA
:1056D00000000000000000000000000000000000CA
:1056E00000000000000000000000000000000000BA
:0C56F000000000000000000000000000AE
:04000005080000ED02
:00000001FF
